S01000006669726D776172652E73726563B7
S113000058250020453700004137000041370000E3
S113001000000000000000000000000000000000DC
S11300200000000000000000000000004137000054
S113003000000000000000004137000041370000CC
S113004041370000413700004137000041370000CC
S1130050090D00004137000041370000512E000017
S11300604137000025100000351000004510000045
S1130070551000000000000000000000413700009F
S1130080413700004137000041370000413700008C
S1130090413700000000000000000000413700006C
S11300A0413700004137000041370000413700006C
S11300B00000000010B5064C2378002B07D1054B37
S11300C0002B02D0044800E000BF0123237010BDC0
S11300D0FC00002000000000843F0000084B10B525
S11300E0002B03D00749084800E000BF0748036815
S11300F0002B00D110BD064B002BFBD09847F9E72D
S11301000000000000010020843F0000843F000044
S11301100000000030B583B001AC0023237001223D
S11301206270A37021000E20044DA84721000F2007
S1130130A84721000020A84703B030BDE10D00000E
S1130140704770477047704710B582B0264B1B6AE2
S11301508022D20113405A425A41D2B2234909782B
S113016091420ED021490A70002B26D10820204B41
S11301709847FF230093783B0122082100201D4C5F
S1130180A047194B1B6A8022120213405A425A415B
S1130190D2B21949097891420DD017490A70002B3F
S11301A016D01520154B98470023009300220021F8
S11301B00120104CA04702B010BD08200F4B9847F7
S11301C0002300930022002100200A4CA047D8E716
S11301D01520074B9847FF230093783B0122082101
S11301E00120044CA047E6E7004400411801002028
S11301F0F90300004139000019010020390300000F
S113020070470020704700000B4B5B881A0A0020DF
S1130210022A00D07047FD321A42FBD1064BDB881C
S1130220012BF7D1044B054A9A60054A1A61012251
S11302309A810130EEE7C046F40300202C0100202F
S1130240B502000010B50024074B1C70074B1C704E
S1130250074B1C70082200210648074B9847074BA0
S11302601C70074B984710BD200100201C01002082
S11302701A01002024010020D33E00001B010020AD
S1130280313B000010B5014B984710BD413B0000C5
S113029010B5034B034A04490448054CA04710BD5C
S11302A009020000140000201C010020200100208D
S11302B09D04000010B5024B1878024B984710BDFE
S11302C02C0100200102000010B582B00B4B1B78FA
S11302D00020002B01D002B010BD094A094B1100C7
S11302E011CB11C10021084B1970084B009308234E
S11302F08120074CA047014A1070ECE71A01002046
S113030030010020240100201B01002015030000FF
S11303109524000010B50022044B1A70044B1B787E
S1130320002B00D110BD034B9847FBE71A010020B6
S11303301B010020C902000030B583B0EFF3108325
S11303405A425341019372B6BFF35F8F0022264B8A
S11303501A70019C254B9B78002B16D0984241D0F3
S1130360224B0332D97800290FD0814216D00132B2
S1130370D2B20133082AF5D1002C30D001221A4B15
S11303801A70BFF35F8F62B629E0002C27D00122D8
S1130390154B1A70BFF35F8F62B620E0082AEBD0CA
S11303A0062A0CD811498B18551C0620821AD2B281
S11303B0AA188A185978197001339342FAD1002285
S11303C00A4BDA7101320A4B1A700A4B9847002C17
S11303D005D00122044B1A70BFF35F8F62B601206F
S11303E003B030BD0222DDE7DA0000202401002042
S11303F01B010020C902000010B582B0EFF3108386
S11304005A425341019372B6BFF35F8F00221F4BD0
S11304101A70019C1E4B9B78002B35D0984215D046
S11304201B4A0323D17800291AD081420ED001330C
S1130430DBB20132082BF5D10020002C22D001229E
S1130440124B1A70BFF35F8F62B61BE00120002CC1
S113045018D001220D4B1A70BFF35F8F62B611E002
S1130460082BE9D00A4AD05401220A4B1A700A4BCD
S113047098470120002C05D00122044B1A70BFF3C9
S11304805F8F62B602B010BD0223EBE7DA000020F2
S1130490240100201B010020C902000070B50500E2
S11304A014003B4A127850B2002805DB6024224035
S11304B00020202A4FD070BD6020024003D1344870
S11304C0407806280DD00020202AF4D1304A5278F2
S11304D0022A34D0032A38D00020012AEBD19847CD
S11304E0E9E72C4B98470300827A0020212AE2D1C5
S11304F0274A5288120A212A13D0D97B002091421C
S1130500D9D1234A9460197C09331B7A1B020B430B
S1130510D088191C9BB2834200D9011C918101200F
S1130520C9E71B4A1900093191605B7AD088191C0C
S11305309BB2834200D9011C91810120BBE7144B7B
S11305409D6001229A810120B5E7114B9960012237
S11305509A810120AFE70E4A52780A2A06D00B2A64
S11305600AD00020092AA6D19847A4E7084B5B8843
S11305701B0A2B7001209EE7054BDB880020002B13
S113058000D098E7024B5B880B70013093E7C046BC
S1130590F40300203507000010B5114B1B681A68DE
S11305A09478D3781B022343D2180378C01890425E
S11305B010D24378042B0FD08B420AD00378C01892
S11305C0904205D24378042B08D08B42F6D100E048
S11305D0002010BD0020FCE70020FAE70020F8E727
S11305E04401002010B5034B5B887F201840024B68
S11305F0984710BDF40300206D26000070B5194B18
S11306001B780022002B29D0174B1B681B681C7910
S1130610844223D9154A13609A78DC78240214435F
S11306201C19A3421CD20025012607E00F4A1360BF
S11306300FE01A789B183500A3420CD25A78042A8A
S1130640F7D19A788242F4D1DA788A42F1D1002D36
S1130650ECD1012202E0054A13600022100070BDB3
S11306600022FBE740010020440100204801002053
S1130670F0B5C64600B504000021134B9847051E8B
S113068003D1280004BC9046F0BD104B1B685B6886
S1130690A200D3589846DB689847010020000A4B13
S11306A09847051EEDD00A4B1C680A4E0A4F0521D7
S11306B02000B047041E02D08078B847F7E74346CD
S11306C05B689847DDE7C046FD0500004401002053
S11306D04801002099050000AD210000F8B505008F
S11306E00F4B9847002819D00E4B1C680E4E0F4F25
S11306F005212000B047041E09D003794279120273
S11307001A43C1788078B8470028F1D106E0084B35
S11307101B685B68AD00EB581B689847F8BDC04682
S1130720FD05000048010020990500000522000095
S113073044010020014B18687047C046480100205E
S113074010B5014B984710BD1D27000070B5124B22
S11307501B78002B11D0114B1B681B681B79002BD5
S11307600BD000240E4E0D4D2000B0470134E4B2EE
S11307702B681B681B79A342F6D80022064B1A701B
S1130780084B1B889B0703D40122064B1A8070BDBB
S1130790054B9847F8E7C04640010020440100207B
S11307A07106000038010020253B000070B50E4B97
S11307B01B78002B17D00D4B1B681A681279002A7E
S11307C011D00024094D06E00134E4B22B681A6804
S11307D01279A24207D95B68A200D3581B69002B87
S11307E0F2D09847F0E770BD40010020440100209A
S11307F0F8B5B64B00229A811A615A611B785AB235
S1130800002A13DB60221A4200D1D7E0AF4B1A78DA
S11308101F231340012B00D18EE1AC4B1A781F2308
S113082013400020022B00D1DFE1F8BDA74AD28893
S11308300020002AF9D060211942E7D11F210B4082
S113084008D1A2494978062923D0082900D184E097
S1130850002917D0012B00D187E0022BD6D19B4B66
S11308605B780020002B00D02BE1022AD5D1974BD6
S11308701879974B9847974B188002211800964B8C
S11308809847FDE0022AC8D102319448924B984718
S1130890F6E08E4B5A88130A022B23D0D9B20229D0
S11308A00FD9032B34D00F2B00D09CE18C4B9868CC
S11308B00028B2D08378C17809021943864B98473F
S11308C007E0012B00D08EE1854B18680178824B3C
S11308D098477E4BDA889B89934200D8D0E07B4BC3
S11308E09A81CDE0D2B27E4B1B685B7C934200D8E8
S11308F093E77B4B5B68D200D0588378C1780902B8
S11309001943754B9847714B9B6802225A70E0E774
S1130910FF231A40012A1DD0002A16D0022A00D033
S113092074E7704C0D21704A02320023E05C1080A1
S113093001330232D8B28842F8D3490002316A48FE
S1130940017089B2644B9847C3E704216748624B3E
S11309509847BEE7664C0821E5E7012A00D05CE72A
S1130960012164485C4B98478AE0584949780A2930
S113097000D072E7012A00D0DEE05E4B1B78002B2A
S113098000D1D9E0514B1C795B4B1D682B681B7956
S1130990A34200D8D0E000212000584B98470028FB
S11309A000D133E76B68A400E358DB689847544BE5
S11309B0187001211800484B984761E01F2213402A
S11309C072D1424A5278032A5CD0D1B203293BD96E
S11309D0052A4DD0092A67D13C4BDB88002B00D077
S11309E01BE7484B9847002800D10FE7374B9A780C
S11309F03B4B1B685B7C9A4200DD07E7424B984700
S1130A00324B9B783B4A1370002B39D03F4A9446B3
S1130A106344DB00324A5268D318374A13601B68B8
S1130A201B79002B2CD00024394D16000021200006
S1130A30A847002800D1E9E60134E4B233681B6812
S1130A401B79A342F2D81BE0012A2DD11F4BDB886E
S1130A50002B00D0E1E61D4B5B88012B00D0DCE6C7
S1130A601E4A138802218B4313802A4B984707E0C0
S1130A70164BDB88002B00D0CFE6274A134B1A61B4
S1130A800120D2E6114BDB88002B00D0C5E60F4BCA
S1130A905B880020012B14D1104A138802210B43D8
S1130AA013801E4B9847EBE7012B39D0022B00D063
S1130AB0ACE6064B5B78012B74D0032B00D180E0AD
S1130AC00020002800D0B0E6A0E6C046F4030020D1
S1130AD00D2300003A0100208D260000380100207B
S1130AE050000020CC000020A0000020BC0000200A
S1130AF0C00000204001002044010020FD0500004A
S1130B003C0100207D2600004D070000FFFFFF1F71
S1130B10DD060000253B0000E5050000193B000050
S1130B20464A52780B2AC1D1444BDB88002B03D1AF
S1130B30434B1B78002B27D1414B1B780020002B03
S1130B4000D172E63D4B1C793E4B1D682B681B7926
S1130B50A34200D869E6002120003B4B98470028B7
S1130B6000D15AE66B68A200D558EB68984701009B
S1130B702000354B9847002800D14EE6AB689847D3
S1130B80002800D051E648E62C4B1D795C882800EB
S1130B902E4B9847002800D138E6E1B228002C4BB0
S1130BA098478EE7254BDB88002B00D035E6234B96
S1130BB05B88002B00D030E6204B1879254B9847F2
S1130BC07FE71E4BDB88002B00D026E61B4B5B889F
S1130BD0002B00D021E6194C20791F4B984720792F
S1130BE01E4B98476DE700206BE7154B1B78002BD5
S1130BF000D11AE6134B1B681A681279002A1AD01E
S1130C000025114E0F4F5B68AA00D458E36898473B
S1130C1001002800B047002800D106E6A3689847E1
S1130C20002800D001E60135EDB23B681A6812795C
S1130C30AA42E8D8F9E50020F7E5C046F40300200D
S1130C404001002044010020FD0500007106000061
S1130C50DD06000051240000612100002123000072
S1130C600C4B1B68002B06D1EFF31083002B07D02D
S1130C700022094B1A70074A136801331360704746
S1130C8072B6BFF35F8F0022044B1A700132024B1D
S1130C901A70F0E74C01002050010020DA00002017
S1130CA0084B1A68013A1A601B68002B09D1064BDD
S1130CB01B78002B05D00122044B1A70BFF35F8F01
S1130CC062B670474C01002050010020DA00002079
S1130CD0F0B583B001AC012565700027A7702570BD
S1130CE021000A20064EB0478022D200054B9A61AB
S1130CF02770657021000E20B04703B0F0BDC046D8
S1130D00E10D00000044004170B50022104B1A7040
S1130D10002310491F25104E0D4C0AE00D4908E030
S1130D2023780133DBB223700F2B10D800211F2B43
S1130D30F4D9280018400122824008691042EFD0FB
S1130D400A619B009B59002BEAD09847E8E770BDE5
S1130D50F501002000180040F8010020044A13782F
S1130D6002210B43137053785BB2002BFBDB7047FB
S1130D700018004000B583B0124A936940210B4328
S1130D80936101A900230B7005200F4B98470520A0
S1130D900E4B98470E4A137801210B431370537876
S1130DA05BB2002BFBDB0B4B19004031002204C368
S1130DB09942FCD11022084B1A60084B984703B0A3
S1130DC000BDC046000400408D1900000119000058
S1130DD000180040F801002000E100E05D0D000073
S1130DE000B583B001AB80221A700A785A704A7831
S1130DF09A708A78DA701900014B984703B000BDE5
S1130E00851A000010B5490840230024814202D20B
S1130E10180010BD1C00091A631C9BB28842F9D942
S1130E204023FF2CF4D814800023F1E710B582B0DE
S1130E3004000E4B1B78002B07D0002905D10B4B67
S1130E405B78834210D01D200CE001A90C701320A4
S1130E50074B98471320074B9847044B5C700122BB
S1130E601A70002002B010BD0020FBE754010020DE
S1130E708D190000011900002B4B984223D00FD983
S1130E802A4B98422FD02A4B984242D101293AD07A
S1130E90002946D0022938D0032938D0002039E06F
S1130EA0244B984235D1012907D0002933D0022997
S1130EB005D0032905D000202CE01F482AE01F4854
S1130EC028E01F4826E0012907D0002925D002295F
S1130ED005D0032905D000201CE01A481AE01A485E
S1130EE018E01A4816E0012907D0002917D0022972
S1130EF005D0032905D000200CE015480AE0154868
S1130F0008E0154806E0154804E0154802E01548D5
S1130F1000E0002070471448FCE70320FAE7134878
S1130F20F8E71348F6E7C046000C00420010004200
S1130F3000140042000800420300050003000600FC
S1130F40030007000300010003001E0003001F004C
S1130F500300090003000A0003000B000300110052
S1130F600300120003001300030004000300080040
S1130F700300100030B585B06A460F4B32CB32C245
S1130F801B6813600300009A824211D0019A8242C6
S1130F900AD0029A824209D00020039A9A4201D0D0
S1130FA005B030BD033004E0012002E0022000E07F
S1130FB00020C0B2F4E7C046E43E000070470000E1
S1130FC030B50B4B1B78002B0ED10A4C0A4D256013
S1130FD00A4B00221A6065605A60A5609A60E56059
S1130FE0DA600132024B1A708000024BC15030BDEE
S1130FF05601002058010020BD0F000038020020D7
S113100010B582B001AC092323700133637001333E
S1131010A3700133E370024B9847205602B010BD11
S1131020750F000010B5024B1B680020984710BDD7
S11310305801002010B5024B5B680120984710BD91
S11310405801002010B5024B9B680220984710BD40
S11310505801002010B5024BDB680320984710BDEF
S113106058010020F0B58BB005000C001600296073
S11310700B681C209B0701D50BB0F0BD0B6817381B
S1131080DB07F9D40800604B9847604A116A871C53
S11310900123BB400B43136209A92427F35D0B70A2
S11310A01430C3B201931800594B98470198594B17
S11310B09847F05D0021584B98473378012B38D07E
S11310C02B000C3329002831002204C38B42FCD1AD
S11310D00023EB62AB620024AB862B863633EC54E0
S11310E00133EC540133EC54353B6B722C7128689A
S11310F0454B984707004949494B9847BF00494B1E
S1131100FD502F6804AB80221A705C707F3A9A708D
S1131110DC703378002B02D1002204AB9A70B36ADE
S11311200593F36A0693336B0793736B0893002458
S11311300BE023680C2213432360C1E738003A4BC9
S113114098470AE00134042C10D0E1B2A30002AAAB
S11311500C201218D0580028F0D0431CF2D004A957
S11311600870000CC0B2314B9847EBE733786B71D1
S1131170337CAB71B37CEB71337D2B72002202ABF9
S1131180DA803378012B28D07368B2681343F2688D
S11311901343317C727C002A03D1254A927892074A
S11311A001D580221343B27C002A02D0802292020D
S11311B01143F27C002A02D0802292001143327D36
S11311C0002A02D08022920111433A6813433B6003
S11311D07B680B437B6000204EE728680A4B9847E6
S11311E01430C0B2134B9847010002AB9A1DB0698A
S11311F0114B984703001720002B00D03CE702ABAB
S113120006331B783B73BFE7750F000000040040F2
S11312108D190000011900002D0E00008D12000030
S1131220C10F000038020020790E0000851A00006A
S113123000200041A9190000050E0000931C9B002A
S1131240C31859603621012393401A00435C1343A9
S11312504354704730B51724002B01D1200030BD12
S1131260C5790534002DF9D01C34055D333C052DBA
S1131270F4D0838603868262C162052338228354B4
S1131280363A4272026893750024E7E7F8B58000A5
S1131290704BC45826683723E75C3622A25C17409B
S11312A0337EB57D1D40EB0702D56379012B1ED03B
S11312B06B0711D5738B5B075AD5637A012B08D062
S11312C01E223823E254353B6372023333753B07E5
S11312D04AD4B36A04237383AB0703D56379012B20
S11312E000D197E06DB2002D00DAA9E0F8BD637A71
S11312F0002B22D0637A002BDAD02168E26A1378BB
S1131300DBB2501CE062A079012827D09BB2DB0538
S1131310DB0D8B62A38E013B9BB2A386A38E9BB293
S1131320002BC5D101333375637A012BC0D1E37926
S1131330002BBDD10233B375BAE7474B1B88B362A8
S1131340638E013B9BB26386638E9BB2002B01D1FB
S1131350013333756379012BCCD0A9E750780002AF
S113136003430232E262D2E72000A3699847B0E760
S1131370637A012B28D023689B6ADB05DB0DDAB284
S1131380A16A0A70A26A511CA162A179012934D010
S1131390238E013B9BB22386238E9BB2002B00D06D
S11313A09AE700223833E254343B3375637A022BD4
S11313B029D0637A002B00D08EE7BB0700D48BE7DB
S11313C020002369984787E723689B6A638E013B63
S11313D09BB26386638E9BB2002B00D07CE7043300
S11313E0337500223433E254353B6372FB0700D477
S11313F072E72000E36898476EE71B0A5370A36AFC
S11314000133A362C4E77B0700D465E72000636966
S1131410984761E7637A012B00D063E7E379002BF7
S113142000D05FE702333375013363720022353332
S1131430E254FB0700D455E72000E368984751E7DE
S11314408023337533767B0600D44FE7636A20002C
S113145098474BE7380200204802002010B50828BE
S113146003D880001C4B1B589F46002032E01B4BC6
S113147018692FE01A4B1B6A9B059B0F1948D8402B
S113148028E0164B586925E0144B1B6800209B0785
S113149020D513491022CB681A42FCD00F4B1A688E
S11314A024231340042B01D00F4813E000200F4BDA
S11314B098470A4B9B681B041B0C58430AE05023B3
S11314C0074AD35C00205B0704D5044BD86801E0CD
S11314D08020000210BDC046F43E000068010020D8
S11314E00008004000127A00006CDC02A919000018
S11314F070B50C490B6A0478857840780122104055
S113150080014026B34303432A40D2018020834311
S113151013430322224012020348034013430B6285
S113152070BDC04600080040FFFCFFFF10B5037A01
S11315309B061B0C42899205920D134318494B607C
S11315408379C279134342888488224313434278BF
S1131550D20113430B600378042B11D0202B0ED13E
S1131560037B9B06028A1343C28912040D490A4075
S113157013430B4A936011680B4B0B43136010BD6C
S1131580037B9B06028A1343C289120405490A405D
S11315901343034A9360136804210B431360EEE77B
S11315A0680100200000FF0324040000082803D879
S11315B08000254B1B589F46172044E0234A136A9A
S11315C002210B43136200203DE0204A936902216B
S11315D00B439361002036E01C4A138A02210B431B
S11315E0138200202FE0194A938A02210B4393822D
S11315F0002028E016490B68022213430B60134BAA
S11316009A8419000E32CB681A42FCD0104A9168B1
S11316100E4BD96252689A6200229A8419001032E1
S1131620CB681A42FCD00A4B1B689BB2074A9384CE
S1131630002008E0054944228B5C022003438B54BC
S1131640002000E000207047183F00000008004020
S11316506801002030B58BB0C222D200304B9A60B2
S1131660304A53681E218B431A390B4353600122BD
S113167001AB1A7000242C4DE0B201A9A847013433
S1131680252CF9D105AB0022002159809A71DA7119
S1131690203119705A70254B1B689B0E3F2B3CD090
S11316A005A80372072303730333C381204B4381CB
S11316B0FF3B83801F4B03821F4B984704A80023E2
S11316C043700122827003701C4B984706201C4C07
S11316D0A0471C4B98470720A04711491022CB680C
S11316E01A42FCD00E4A938C80210B439384164AF1
S11316F00023137253729372D37201A901224A60B8
S11317004B704B7207330B700A7200200F4B9847D3
S113171000200F4B98470BB030BD203BC0E7C046BC
S113172000080040004000418D1900002460800042
S1131730FF01000080BBFFFF2D150000F114000025
S1131740AD15000055170000000400407917000093
S113175031180000064A936908210B439361012262
S1131760044B1A7019000B781342FCD17047C04621
S113177000040040000C004070B5060004000D7821
S11317802D0205434B78002B02D08023DB021D433E
S11317904B7A002B02D080231B031D434868012889
S11317A010D9431E184234D1022830D90223002212
S11317B001325B009842FBD81202324314008023AA
S11317C05B031D430B7A002B02D080239B031D4334
S11317D0134A53785BB2002BFBDB124B9847124B36
S11317E01E700F4A53785BB2002BFBDB0C4B9C60E2
S11317F01A0053785BB2002BFBDB094A5368802143
S113180049020B401D435560084B984770BD0022A8
S1131810D2E70402344380239B021D43D2E7C0462F
S1131820000C0040610C0000080C0040A10C0000FA
S113183010B504000B4A53785BB2002BFBDB0A4B58
S113184098470A4B1C70074A53785BB2002BFBDBAA
S1131850044A516880235B020B435360044B98474E
S113186010BDC046000C0040610C0000040C004098
S1131870A10C000070B504001A4A53785BB2002B27
S1131880FBDB194B9847194B1C70164A53785BB213
S1131890002BFBDB134E7068C004C00E144B98473A
S11318A00500124B1C707668F602F60F114B1C7083
S11318B00C4A53785BB2002BFBDB0A4B9C68240276
S11318C0240C0D4B9847002E07D1012C07D9210079
S11318D028000A4B9847050001E00134E540280040
S11318E070BDC046000C0040610C0000040C0040B8
S11318F05D140000080C0040A10C00004D3B0000EA
S113190010B50400064B9847064B1C70064A5388D2
S11319108021C9010B435380044B984710BDC04636
S1131920610C0000020C0040000C0040A10C0000FF
S113193010B504000F4B98470F4B1C700F4A538887
S11319401B05180F53880E490B40538053880D49CB
S11319500B40538011008022D2014B881342FCD1EA
S113196006494A8803020648024013434B80064B4B
S1131970984710BD610C0000020C0040000C0040B0
S1131980FFF0FFFFFFBFFFFFA10C000010B50C78B4
S113199024020443024B9847A4B2024B5C8010BD5E
S11319A031190000000C004010B50400064B9847A4
S11319B0064B1C70064B5C882405240F054B984786
S11319C02000054B984710BD610C0000020C00403C
S11319D0000C0040A10C00007518000030B5D3784D
S11319E0002B35D11378802B29D01B068024640268
S11319F0234354780225AC4306D19478002C20D19B
S1131A008024A402234341605478013C012C1CD956
S1131A100D042D0CA024E4052C431C4384620D0CFE
S1131A20D02424062C431C438462D478002C22D175
S1131A305B031CD59378012B1ED0416117E0002372
S1131A40D7E7C024E4022343DDE70D4C2340DFE75E
S1131A5041600C04240CA023DB05234383620C0C9B
S1131A60D0231B0623438362D378002B03D15378FE
S1131A70013B012B02D930BD8161F8E78160FAE7AF
S1131A80FFFFFBFF10B50A00C1090023002904D1A0
S1131A904309DB0105498C4663441F24204001218E
S1131AA081401800024B984710BDC04600440041D5
S1131AB0DD1900007047000010B5054B9847054B31
S1131AC09847054B9847054B9847054B984710BDD9
S1131AD055160000D10C0000B51A0000750D000069
S1131AE0B51A000010B584B003AB00221A7003329B
S1131AF05A70013A9A70013ADA70274B1B78834284
S1131B0007D0002807D1244B1B78002B23D1224B6C
S1131B10187004B010BD03AB1B5C204AD25CFF2AD2
S1131B2000D1FEE7EFF3108251424A41019272B6AE
S1131B30BFF35F8F00211A4A1170019C1749CA5CD8
S1131B400132CA54002CDED00122154B1A70BFF3A7
S1131B505F8F62B6D7E703AAD35C104AD25C002A2F
S1131B6000D1FEE7EFF3108251424A41029272B66D
S1131B70BFF35F8F00210A4A1170029C0749CA5CB7
S1131B80013ACA54002CC2D00122054B1A70BFF38B
S1131B905F8F62B6BBE7C046B0010020F0010020B1
S1131BA0DA00002043060BD00F2303405B00C0097A
S1131BB018180238830018188000024B1818704750
S1131BC00020FCE788010020F0B5D6464F46464683
S1131BD0C0B589468D796BB2002B26DB28005E4B9D
S1131BE0984704000F272F40038A98464B461B88CA
S1131BF09A46837C5B076AD4E36853441E00E3601F
S1131C00A3689E4200D874E0E360A37C012293435E
S1131C10A3742368002B03D0E1682A0000209847AE
S1131C201CBC90469946A246F0BD28004A4B9847F2
S1131C3004000F272F40038A98464B465E88C368EA
S1131C409C466644C66081688E4225D08D1BADB229
S1131C50424B9D4206D91D0041461800404B98470F
S1131C606D1AADB2A27C0023920707D54146280025
S1131C703C4B984789B24B424B41DBB25B00A27CA0
S1131C8002218A431343A374626892192B0039001A
S1131C903548364CA047C3E7837C9B070BD4837C31
S1131CA00122934383740368002BB9D02A003100C6
S1131CB000209847B4E7837C0222934383744268EC
S1131CC09219002339002848284CA047A8E7436804
S1131CD0C268944663441E0041468068214B98477D
S1131CE00A007B1E9B01224959183000214B98475A
S1131CF082E74A469288524500D086E79E4200D148
S1131D0083E79B1B9DB2154B9D4216D91D0041468E
S1131D101800134B98476B1A9BB2984514D9A37CAF
S1131D2004221343A3747A1E9201114BD218434622
S1131D3039000D48104CA04772E741462800094B72
S1131D4098476B1A9BB2E8E7626892193900064813
S1131D50094CA04764E7C046A51B0000FF1F000014
S1131D602D3E0000593C00008C020020692D00002B
S1131D704C020020C13E0000BD2D000010B505221C
S1131D80054B1A70054C80212000054B9847002113
S1131D902000044B984710BD860100208C020020CF
S1131DA0BD2C0000E32C000070B5084C0621200077
S1131DB0074DA84704212000A84702212000054B15
S1131DC098470220044B984770BDC0468C020020FF
S1131DD0FD270000DD270000E51A000070B5134B55
S1131DE09B8C9B061CD41149D022CB681340D02B6A
S1131DF0FBD10F4C022120000E4B984704212000F8
S1131E000D4DA8470D4A062120000D4B9847062189
S1131E102000A84703200B4B98470B4B984770BDF5
S1131E2002491022CB681A42FCD0E2E700080040C5
S1131E308C020020FD270000DD270000A91D000002
S1131E40B9270000E51A0000E93A000070B582B035
S1131E5004001E4B984780232268937201AD28002A
S1131E601B4B984700266E7029002000194B984799
S1131E7019492000194B9847194B022200212000D0
S1131E80184DA847184B002200212000A847174BE3
S1131E90012200212000A847022200212000144D25
S1131EA0A847002200212000A84701220021200089
S1131EB0A84721680B890F4A1A408023DB0013438B
S1131EC00B810D4B1E7002B070BDC0464D07000063
S1131ED0092A0000192A00000C0400200D2E00001D
S1131EE0352000001928000051230000391F00008C
S1131EF069280000FFF3FFFF8601002010B50322CC
S1131F00074B1A70074C08492000084B9847084BA8
S1131F109A68002300212000064CA04710BDC0464B
S1131F20860100208C0200200C0400200D2E0000ED
S1131F30F4030020692D000010B589794BB2002B01
S1131F4006DB0E4B1B78022B0FD0032B11D010BDD8
S1131F500A4B1B78012B05D0042BF8D10848094BF8
S1131F609847F4E7084B9847F1E70422034B1A70AB
S1131F70EDE70348034B9847E9E7C0468601002094
S1131F808C020020BD2C0000FD1E000070B5204B0B
S1131F901B88204A9489E41AA4B2002C18D11E4A42
S1131FA011885B189BB213801A4AD2889A4223D0B4
S1131FB01A4B1B78002B1FD1164B5B69002B23D0C7
S1131FC09847002820D00022114B1A80114B9C897D
S1131FD0072C19D90022114B1A7008240C4D2B8898
S1131FE00C4A9268D218230000210D480D4EB047C8
S1131FF02B88E4182C8070BD04220B4B1A700B49FB
S113200007480B4B9847F6E70122044B1A70E5E7A3
S113201082010020F40300208401002080010020BC
S11320208C020020692D0000860100200C04002091
S11320300D2E000010B50C002C4B1B78002B07D084
S11320402B4B1B69002B00D098470022274B1A709A
S11320502388082B02D0274B984710BD244A264BCF
S11320601978117059785170D87800029978091844
S1132070518058790002197909189180D979090297
S11320809B795B18D3801D4B9847002816D0184BBA
S11320901B787F2B15D8164BDB88002B22D000230E
S11320A0174A1380174A13800122104B1A70082311
S11320B0114A00211448154CA047CEE70D4B984710
S11320C0CBE700230E4A13800E4A13800222074BEB
S11320D01A700823084A00210B480C4CA0470C4BEB
S11320E09847BAE70B4B9847B7E7C04686010020EC
S11320F0F40300207D1D00000C040020F107000003
S113210084010020820100208C020020BD2D0000EB
S11321108D1F0000FD1E000010B5024B9847024BB6
S1132120984710BDAD070000F53A000010B5074C04
S113213004212000064B984702212000054B9847B4
S11321400120054B9847054B984710BD8C02002091
S1132150FD270000DD270000E51A0000DD3A00003D
S113216010B5040001000A480A4B984720000A4BA6
S11321709847837CDB070AD5837C012293438374CD
S11321800368002B03D0C16822000120984710BDCA
S11321908C0200205D2C0000A51B0000024B1B6874
S11321A0188A8004400D70478C02002070B582B0FC
S11321B0040001AD28000D4B984720000C4B9847B4
S11321C02C700023EB700B4E290030000A4B98470B
S11321D00F21214000223000084B984700222100A3
S11321E03000074B984702B070BDC046092A000072
S11321F0612100008C020020192A000041280000FF
S113220039290000F0B583B005000F00140001AEB9
S11322103000364B98473570082C13D8002201AB98
S11322205A702800324B984704820321394001290F
S113223038D0022943D0002303293DD1042201AB25
S1132240DA7032E0102C03D8012201AB5A70E8E7AF
S1132250202C03D8022201AB5A70E2E7402C03D8A9
S1132260032201AB5A70DCE7802C03D8042201ABB3
S11322705A70D6E780235B009C4203D8052201AB49
S11322805A70CEE780239B009C4203D8062201AB00
S11322905A70C6E7174A002394420DD8072201ABAF
S11322A05A70BEE7022201ABDA7001A91248134B3F
S11322B098470023002806D0180003B0F0BD03227D
S11322C001ABDA70F1E70F2129400B4C0C4B0022D3
S11322D020000C4EB0470022290020000A4EB047CF
S11322E0012229002000B0470123E5E7092A000064
S11322F0A51B0000FF0300008C020020192A000027
S1132300C91B0000192800006928000010B501004D
S11323100148024B984710BD8C020020932C00000A
S113232010B504000F2303400020012B00D910BD79
S113233021000448044B98472000044B984701208F
S1132340F5E7C0468C020020BD2C0000612100008E
S113235070B5344B1B78012B0AD0022B5FD0324B63
S11323601B69002B00D0984700222E4B1A7070BDB9
S11323700D882D4B9B892D4A14886219934201DAEA
S11323801D1BADB2284B986800192A002849294B17
S113239098476419A4B2254B1C80082D0AD0224BFF
S11323A09C815B69002B02D09847002814D0224BF3
S11323B09847DCE71C4BDA88204B1B881B199A4290
S11323C0EDDD194B9B89A3420CD00823184A002148
S11323D01B481C4CA047CAE70522124B1A701A4B23
S11323E09847C4E7104B5B69002B0BD09847002833
S11323F00FD012490D4A0B8810881B180B8000233C
S11324001380E2E70522074B1A7000200E4B984711
S1132410ADE70522034B1A700B4B9847A7E70B4B0C
S11324209847A4E786010020F403002082010020DD
S11324300C040020C13E0000FD1E000084010020A9
S11324408C020020BD2D0000212300008D1F000000
S113245070B504000F2303400020012B00D970BD88
S11324602000094B9847050021000848084B98476D
S1132470AB7C0120DB07F2D5AB7C01229343AB7428
S11324802B6898470120EAE7A51B00008C02002076
S1132490E32C0000F0B587B005000391029201938C
S11324A00F2606400024012E02D9200007B0F0BDFB
S11324B0644B9847041E00D0BDE02800624B984747
S11324C00700EFF310835A425341059372B6BFF3EA
S11324D05F8F00225D4B1A70059B827CD20708D562
S11324E0002BE2D00122594B1A70BFF35F8F62B602
S11324F0DBE7827C01210A438274002B05D0012290
S1132500524B1A70BFF35F8F62B6029B7B60019BD4
S1132510BB600023FB600C9B3B600123039A1340C8
S11325205A00BB7C02218B43134304229343BB74A4
S11325306BB2002B20DB019B002B6FD09CB2444B71
S11325409C425AD9398A1C001800424B9847631A96
S11325509AB23B8A9A4257D2BA7C04210A43BA748B
S1132560721E92013C49521831003C483C4CA04731
S113257044424441E4B298E7019B002B27D09DB22A
S1132580334B9D4206D9398A1D001800314B9847B8
S11325906B1A9DB2BB7C9B0707D5398A2800314B47
S11325A0984789B24C424C41E4B20120204040009B
S11325B0BC7C02239C430443BC742B00029A31006C
S11325C02648294CA04744424441E4B26DE7BB7C11
S11325D09B0705D5BB7C02229343BB740025ECE723
S11325E0BB7C01229343BB740C9B002B25D02A0097
S11325F0002100209847012457E7398A2000194B0D
S11326009847631A9AB2A4E71300029A3100134858
S1132610134CA04744424441E4B246E7BB7C012248
S11326209343BB740C9B002B09D02A00002100208B
S11326309847012439E7002437E7012435E70124CA
S113264033E7C0460D230000A51B0000DA0000207C
S1132650FF1F00002D3E00004C0200208C020020D1
S1132660BD2D0000593C0000692D0000024B1B6881
S113267080221043987270478C020020024B1B6822
S1132680987A4006400E70478C020020014B9860F7
S113269099817047F403002070B50320164B9847C6
S11326A0164C2268138901218B431381144A033188
S11326B02000144EB047144A00212000B047134AAA
S11326C001212000B047124A02212000B047042112
S11326D02000104DA84700212000A8470121200018
S11326E0A84702212000A8470B4A06212000B04732
S11326F006212000A84770BDE51A00008C020020C6
S11327002D210000B9270000192100004D1E0000F2
S1132710DD1D0000DD270000A91D000070B582B09A
S1132720EFF310835A425341009372B6BFF35F8FA5
S11327300026184B1E70009C01AD2800164B9847CC
S1132740AE70164E2A0016493000164B98473000DA
S1132750154B9847154B9B8C9B0614D41349D022D8
S1132760CB681340D02BFBD10120114B9847114B60
S11327709847002C05D00122064B1A70BFF35F8FD7
S113278062B602B070BD09491022CB681A42FCD06F
S1132790EAE7C046DA000020313500008C02002050
S11327A000500041413500003D2E0000000800406B
S11327B0E51A00009926000010B50B002E339B008B
S11327C01A50AA2252004900835A034C095B0B4356
S11327D08352002010BDC046503F00004900064B04
S11327E0CB5A02689383AB214900425A1A4342529E
S11327F00268138300207047503F00004900054BD6
S1132800CA5AAB214900435A9343435203689A82FC
S113281000207047503F000010B58C00A4183434D9
S1132820A4000419636040185930FF300378034949
S11328308A5C13430370002010BDC046603F000053
S113284010B58B009B1834339B00C31800245C60C4
S113285040185930FF30034B9A5C0378934303705C
S1132860002010BD603F000070B50F230B40C4185A
S11328706134FF3425782F4EB65C35432570002A29
S113288029D1002B12D103250A24FF3406683555BB
S1132890032A09D149B2002944DB02685B01D31839
S11328A00A33FF3320221A70002070BD4CB2002C72
S11328B008DB5C010568AC4664440A34FF34012536
S11328C02570E5E75C010568AC4664440A34FF34CE
S11328D002252570DCE7012A1AD1002B05D10268F4
S11328E00C210A23FF33D154DEE749B2002907DB68
S11328F002685B01D3180A33FF3304221A70D3E74A
S113290002685B01D3180A33FF3308221A70CBE73D
S1132910022ABDD102685B01D3180A33FF331022A7
S11329201A70C1E702685B01D3180A33FF334022EF
S11329301A70B9E7603F000070B50F230B40C4184C
S11329406134FF342F4DAE5C2578B5432570002AE1
S113295029D1002B12D1032584246400066835553F
S1132960032A09D149B2002944DB02685B01D31868
S11329700933FF3320221A70002070BD4CB2002CA2
S113298008DB5C010568AC4664440934FF34012566
S11329902570E5E75C010568AC4664440934FF34FE
S11329A002252570DCE7012A1AD1002B05D1026823
S11329B00C210933FF33D154DEE749B2002907DB88
S11329C002685B01D3180933FF3304221A70D3E77A
S11329D002685B01D3180933FF3308221A70CBE76E
S11329E0022ABDD102685B01D3180933FF331022D8
S11329F01A70C1E702685B01D3180933FF33402220
S1132A001A70B9E7603F00000023037043708370BD
S1132A100133C37070470000F0B50C780F232340D6
S1132A2064B2CA78042A70D89200894DAA5897468D
S1132A30026808335B0100219954002282E05C01A2
S1132A4002689446644480225200A55CE43A6D070F
S1132A5078D1E432A65C7025E43A2E4272D15F3D0F
S1132A60E432A5541A00083252010468A4182F3520
S1132A70657100688218802010718A78002A1FD03E
S1132A805801744A121854688020000604435460A4
S1132A9054692043506107254C785A016D4B9B18AB
S1132AA058682C4024076C4E3040204358604978C5
S1132AB05A692940090732400A435A61002241E019
S1132AC05801644A12185068400040085060506928
S1132AD0400040085061DEE7002C35DB5D010268F0
S1132AE09446654480225200AE5CE43A760729D1CC
S1132AF080267600AA5D02273A43AA550268180088
S1132B0008304001121840205071E20F4F785D00E8
S1132B10AD182D014F4E7519686807243C402407F1
S1132B204D4E3040204368608978002900D088E009
S1132B305B009B181B01474AD3185A68520052087D
S1132B405A6000221000F0BD5D010268944665449D
S1132B5080225200AF5C7026E43A3742F2D19036BC
S1132B60AA5D20273A43AA5502681800083040019C
S1132B70121880201071C8E7002C17DB5D01026871
S1132B809446654480225200AE5CE43A7607D9D17B
S1132B9080267600AA5D03273A43AA5502681800E6
S1132BA008304001121840205071AEE75D01026800
S1132BB09446654480225200AF5C7026E43A374262
S1132BC0C0D19036AA5D30273A43AA55026818004E
S1132BD00830400112188020107196E7002C17DB92
S1132BE05D0102689446654480225200AE5CE43A7A
S1132BF07607A7D180267600AA5D04273A43AA5512
S1132C0002681800083040011218402050717CE717
S1132C105D0102689446654480225200AF5C7026D0
S1132C20E43A374200D08DE79036AA5D40273A4314
S1132C30AA5502681800083040011218802010714B
S1132C4063E7696880231B060B436B60002279E706
S1132C503C3F000014040020FFFFFF8F0F230B40B4
S1132C6049B200290ADB08335B010268D21840210B
S1132C7051710268D3180122DA71704708335B017D
S1132C800268D218802111710268D3180222DA7105
S1132C90F3E70F230B4049B2002907DB026808332E
S1132CA05B01D3189879C006C00F704702680833D7
S1132CB05B01D31898798006C00FF6E70F230B4009
S1132CC049B2002906DB026808335B01D3181022DD
S1132CD05A717047026808335B01D31820225A7175
S1132CE0F7E730B50F230B4049B200291DDB59012A
S1132CF00268521883246400145DE40614D5102578
S1132D00822464001555026852180821FF31515C71
S1132D10890609D5E43C0821FF315454026808337C
S1132D205B01D31801221A7130BD5901026852188F
S1132D3083246400145DA406F6D52025822464004F
S1132D401555026852180821FF31515C4906EBD52C
S1132D50C43C0821FF315454026808335B01D31882
S1132D6002221A71E0E7000030B50C000834640157
S1132D700568645D6406640F1C25002C01D12800DD
S1132D8030BD4C010B4D2D192C002A616A690A4D86
S1132D902A40626162699B049B0C920B9203134369
S1132DA06361036808314901591880234B71002578
S1132DB0E5E7C04614040020FF3F00F030B50C00E6
S1132DC0083464010568645D64071C25002C01D186
S1132DD0280030BD0B4C4D012A51621954689B04E4
S1132DE01B09094D2C402343536053689B0B9B03E1
S1132DF05360036808314901591840230B710025B9
S1132E00E6E7C04614040020FF3F00F0094B1960B8
S1132E105A6809491140802292020A435A605A684A
S1132E20920B92035A600268402182235B00D154C2
S1132E300020704714040020FF3F00F0026813785C
S1132E4002210B43137002689378022BFCD0704765
S1132E50F0B5DE4657464E464546E0B583B0C44B12
S1132E601F683D682B78DB0914D12E8CB6B2002E76
S1132E7000D02DE2AE8BB6B2AB235B00FB5AAA2284
S1132E805200BD5A1D4035400024BA4FB84B9946F4
S1132E90984608E22B8C9BB2002B00D13DE1288C94
S1132EA080B2B54B984704001F2800D935E10300D0
S1132EB008335B01ED18ED79EDB2AB0741D0AF4AB1
S1132EC001238340116899431160030008335B01B7
S1132ED03A68944663440322DA713B18AE331B7894
S1132EE0DB072ED5A64B18703A68030008335B0144
S1132EF09B5C9B079B0F012B00D194E04201A14BEB
S1132F009B185A681201920C90B29D494A805A68E3
S1132F109204920C8A805A689B490A405A6000289D
S1132F2007D16201974B9B185B689B049B0C944AE6
S1132F3053808F4B1868A31C1B01C3185B6890490E
S1132F4098476B071FD58A4B18680268230008331B
S1132F505B019B5C9B065B0F022B75D0230008333F
S1132F605B019B5C9B065B0F032B00D19EE062011F
S1132F70844B9B1800229A72036822000832520183
S1132F809B180422DA712B0715D57C4A0123A34030
S1132F90116899431160764B1868230008335B016C
S1132FA00268944663440822DA710319AE331B782D
S1132FB09B0700D594E0EB0615D5704A0123A34086
S1132FC01168994311606A4B1868230008335B0148
S1132FD00268944663441022DA710319AE331B78F5
S1132FE05B0700D58AE0AB0600D42FE1634A0123D6
S1132FF0A3401168994311605D4B1868230008339E
S11330005B010268944663442022DA710319AE33EB
S11330101B781B0700D419E159490C7024010419C9
S1133020236B984712E14201564B9B185A6892044D
S1133030920C53494A805A681201920C8A805A6849
S1133040920B92035A6074E7230008335B019B5C84
S11330509B079B0F012B81D161014A4B5B180833FD
S11330609B78DB0700D479E7444A0123A340116825
S1133070994311606201434B9B1800229A7223000A
S113308008335B010268944663440422DA7103192D
S1133090AE331B789B0700D475E739490C701023B5
S11330A04B702301C3189B6A98476CE723000833CD
S11330B05B019B5C9B079B0F012B00D057E76201D0
S11330C0304B9B1800229A72230008335B0102687C
S11330D0D2180421D1710268D31810225A7152E710
S11330E027490C706201274B9B18DB891F22134070
S11330F04B702301C3189B6A98475CE720490C7006
S11331006201204B9B185B681B019B0C4B802301C5
S1133110C318DB6A0021984765E7AC8BA4B2630748
S113312038D50423AB83154B1D68012301201026D9
S113313002E00133082B29D002009A401542F8D04E
S113314039681A0008325201525C9206520F032A5F
S1133150EFD11A0008325201525C9207920F012AF1
S1133160E7D11A000832520189180E71E1E7C0460E
S1133170B4010020503F0000393E0000C40100208B
S1133180C801002014040020FF3F00F09D33FB5CC5
S1133190DB0762D423070BD50022AF4B1A60AF4B79
S11331A018680823026893839D33C35C9B0758D433
S11331B0630608D5A94B18684023026893836533D6
S11331C0C35CDB0650D4A30608D5A44B186820239F
S11331D0026893838533C35C1B0748D4E30608D590
S11331E09E4B18681023026893839533C35C5B0776
S11331F040D423060BD50022974B1A60974B1868CE
S11332008023026893832533C35C9B0635D4E3058E
S11332100CD50022904B1A60904B186880235B00F9
S1133220026893835B3BC35C5B0629D4A3050DD57D
S11332300022894B1A60894B186880239B0002681E
S113324093835C3BFF3BC35C7F2B1CD803B03CBC2B
S113325090469946A246AB46F0BD7B683800984735
S113326098E783689847A3E743699847ABE70369FE
S11332709847B3E7C3689847BBE783699847C6E7AD
S1133280C3699847D2E7036A9847DFE723002E33E0
S11332909B00424612689B58714942461068984701
S11332A00134072CD2D06300DB5B334203D04A469F
S11332B01268126893832B42F2D0062CE6D1694B34
S11332C01B891B09802252001340654A1360DDE705
S11332D03C005934FF340023012294465F32914666
S11332E0503A92460D3A9346B8462F00C3E02A005E
S11332F03D00474690465B01ED180823FF33EB5C25
S11333005B0615D540220823FF33EA54883BFF3B74
S113331042461343544A937160230B4296D0019B57
S11333201B01FB18E0331B684F49380098478DE7B1
S11333300823FF33EB5C9B06EED520220823FF33E2
S1133340EA54494B42469A71E6E73D004746019AE2
S1133350130008335B01ED181023EB71BB186133C4
S1133360FF331B78DB0600D470E7100052013D4B9D
S11333709B185B689B049B0C3B490B800301FB1867
S1133380DC331B684046984760E72A003D00474607
S113339090465B01ED180823FF33EB5C9B071ED5B9
S11333A002220823FF33EA542F48883BFF3B42465E
S11333B013438371019B5A012A4B9B1810335B689A
S11333C09B049B0C43808B0700D13FE7019B0D338B
S11333D01B01FB185B6824493800984736E708232B
S11333E0FF33EB5CDB07EED501220823FF33EA54FD
S11333F01D4843468371019B5B011A4AD2185368E6
S11334009B049B0C038053681B019B0C8380DAE7AD
S11334100822FF329A5C520779D504200822FF3231
S11334209854019842010F4B9B189B7A9B0705D532
S11334300C4B9B189A7A022082439A720A4B42469A
S11334409A71019B08335B013A6894466344DB79C3
S1133450DB075CD5FAE6C046C4010020B4010020B5
S1133460B801002014040020BC0100200133013401
S1133470082B00D1EAE6DDB2019332001A4161461D
S11334801142F3D01A0008325201BA18D279D2B2DA
S1133490217A1140207801404846104200D026E7A6
S11334A05046104200D050E75846104200D06CE716
S11334B00C201042DAD02A003D00474690465B01BA
S11334C0EB180822FF329A5C1207A1D504380822AF
S11334D0FF32985401984201134B9B189B7E9B0723
S11334E005D5114B9B189A7E022082439A7680233D
S11334F05B42424613430D4A9371019B08335B01BF
S11335003A6894466344DB799B0700D59EE60C2316
S11335100B4200D19AE6019B1B01FB18D8331B68B0
S113352002493800984791E614040020BC010020A9
S113353000220270012343708270C3707047000040
S1133540F0B5CE46474680B583B004000D001600A2
S113355000236E4A13606E4A106021606D49CA6987
S113356020200243CA6101AF7B700122BA70FB7054
S1133570063399463B7039000838674B984698479C
S11335804B463B7039001920C047B3786A46137024
S113359069460620614B98470620614B98472B7873
S11335A0012213432B70AB78DB07FCD45D4AD3783C
S11335B003218B4302210B43D370D3780C218B431B
S11335C008210B43D370584B1B689B03DB0E1F2B46
S11335D000D18FE02A8D9B0154490A4013432B8567
S11335E0514B1B685B02DB0E1F2B00D184E02A8D3C
S11335F01F218A4313432B854B4B1B689B015B0F95
S1133600072B00D17AE02A8D1B0349490A40134352
S11336102B8532782978D2017F230B4013432B70FA
S113362071782B7801220A40920004218B431343C2
S11336302B70404B6B62F378012B61D0002B06D1C9
S1133640226813890C218B4304210B4313818022AC
S1133650520000213748384B9847231D210024315C
S1133660002204C38B42FCD12100A43100221A6041
S11336705A609A60DA6010338B42F8D10023A42296
S1133680A3540132A3542300A6332100AE310022F7
S11336901A701A7201339942FAD12300B833210007
S11336A0D431002204C38B42FCD121005531FF31B7
S11336B000221A605A609A60DA6010338B42F8D1A3
S11336C00023AA225200A3520232A35223005933E8
S11336D0FF336134FF3400221A701A720133A3429B
S11336E0FAD18022154B1A60002003B00CBC90461E
S11336F09946F0BD1A3B6DE7023B78E7043B82E74D
S11337002268138908318B431381A0E7C401002088
S1133710B401002000040040851A00008D19000047
S11337200119000000500041246080003FF8FFFFB1
S1133730FF8FFFFF14040020D33E000000E100E0EF
S1133740FEE70000F8B52A4A2A4B9A4211D01A0023
S1133750294B9A420DD2294A03339B1A9B08013301
S11337609B000022234822498C58845004329A42F8
S1133770FAD1234A234B9A420AD2D34321495B18F4
S113378003218B4304339B18002102C29342FCD1D2
S11337901D4AFF211D4B8B439360FD3990235B0031
S11337A01B4AD1501B4AD3780325AB43022423433D
S11337B0D370D3780C27BB4308263343D370164BFE
S11337C0987B30229043202210439873997BB9430D
S11337D0314399739A7BAA4322439A730F4A5368DD
S11337E080210B4353600E4B98470E4B9847FEE7DE
S11337F0843F000000000020FC00002004000020A2
S1133800FC0000205405002000ED00E00000000052
S11338100070004100500041004800410040004158
S1133820793E0000C53900000022014B1A70704730
S1133830CE01002010B5064C022206492000064B9A
S113384098473722A35C04210B43A35410BDC04600
S113385014050020293800003D120000F0B591B095
S11338602A4C0123237000226270A27001A94B70BC
S11338708A700B700120264B98472378D9090022BF
S1133880002904D15A09D20122498C4662441F26D8
S11338903340012529009940916102AC2570002331
S11338A00393049323746374A574E5742375242229
S11338B0A354183A002108A8174B9847174BA36143
S11338C080235B02E36001235B42A362E362144B47
S11338D02363144B6363144F220014493800144BC0
S11338E098473C682000134B98470640B540124B5C
S11338F01D603A68D369002BFCD12368022213436C
S113390023600E4B984711B0F0BDC046500500200F
S1133910E10D000000440041D33E0000A0860100F8
S113392003000600030007001405002000080042FD
S1133930651000000110000000E100E035380000CF
S113394070B504AC267801308000C0B20B4C202541
S11339506D4229432154201846708370C270084A6E
S11339601378002BFCD10122054B1A701023054A51
S113397002490548054CA04770BDC046DC00002044
S1133980CE010020D00100201405002055120000B3
S113399010B5074A1378002BFCD10122044B1A708E
S11339A01023044A04490548054CA04710BDC046ED
S11339B0CE010020E0010020EC00002014050020CE
S11339C055120000F8B5DE4657464E464546E0B56A
S11339D00121364B1970BFF35F8F62B6344B00225E
S11339E01A705A709A70DA701971324B9847324BC8
S11339F09847324B9847324B9847324B9847324B53
S1133A0098472A4F0024261C294DB84601239C467A
S1133A10BB462E4B9A460F2399460EE019000132FD
S1133A204B1CDBB210780028F8D0002B0FD1434692
S1133A3062461A70BFF35F8F62B672B6BFF35F8FD0
S1133A403E702B78002BF2D12100194AE7E772B6B9
S1133A50BFF35F8F5B461C7053469B691B0A4A4643
S1133A601340022B05D81A4A5068C0239B00034315
S1133A70536002290BD9032911D00C4B62461A70EA
S1133A80BFF35F8F62B6BFF34F8F30BFD5E7114AE4
S1133A9013690420834313610F4B5970EDE70D4AFA
S1133AA0136904210B431361E7E7C046DA000020E1
S1133AB0F0010020B91A00005D38000091390000BF
S1133AC015010000410100004107000000200041F1
S1133AD00040004100ED00E00004004010B5014B3F
S1133AE0984710BD4101000010B5014B984710BD27
S1133AF04701000010B5054B1B78002B00D110BD09
S1133B00034B9847034B9847F9E7C046DB00002076
S1133B109D2100004901000010B5014B984710BDDC
S1133B204301000010B5014B984710BD450100004A
S1133B300122024B1A7001207047C046DB000020AE
S1133B400022014B1A707047DB000020002243085A
S1133B508B4274D303098B425FD3030A8B4244D351
S1133B60030B8B4228D3030C8B420DD3FF22090293
S1133B7012BA030C8B4202D31212090265D0030B52
S1133B808B4219D300E0090AC30B8B4201D3CB0348
S1133B90C01A5241830B8B4201D38B03C01A52418A
S1133BA0430B8B4201D34B03C01A5241030B8B428C
S1133BB001D30B03C01A5241C30A8B4201D3CB0277
S1133BC0C01A5241830A8B4201D38B02C01A52415C
S1133BD0430A8B4201D34B02C01A5241030A8B425F
S1133BE001D30B02C01A5241CDD2C3098B4201D377
S1133BF0CB01C01A524183098B4201D38B01C01AF5
S1133C00524143098B4201D34B01C01A524103096B
S1133C108B4201D30B01C01A5241C3088B4201D31A
S1133C20CB00C01A524183088B4201D38B00C01AC7
S1133C30524143088B4201D34B00C01A5241411AEE
S1133C4000D20146524110467047FFE701B50020FB
S1133C5000F0F0F802BDC0460029F7D076E77047BF
S1133C6003460B437FD4002243088B4274D30309D9
S1133C708B425FD3030A8B4244D3030B8B4228D37A
S1133C80030C8B420DD3FF22090212BA030C8B42A0
S1133C9002D31212090265D0030B8B4219D300E040
S1133CA0090AC30B8B4201D3CB03C01A5241830BC5
S1133CB08B4201D38B03C01A5241430B8B4201D375
S1133CC04B03C01A5241030B8B4201D30B03C01A9E
S1133CD05241C30A8B4201D3CB02C01A5241830A18
S1133CE08B4201D38B02C01A5241430A8B4201D347
S1133CF04B02C01A5241030A8B4201D30B02C01A71
S1133D005241CDD2C3098B4201D3CB01C01A5241D7
S1133D1083098B4201D38B01C01A524143098B4260
S1133D2001D34B01C01A524103098B4201D30B0149
S1133D30C01A5241C3088B4201D3CB00C01A52416E
S1133D4083088B4201D38B00C01A524143088B4233
S1133D5001D34B00C01A5241411A00D201465241CC
S1133D60104670475DE0CA0F00D04942031000D3EB
S1133D704042534000229C4603098B422DD3030A40
S1133D808B4212D3FC22890112BA030A8B420CD350
S1133D90890192118B4208D3890192118B4204D379
S1133DA089013AD0921100E08909C3098B4201D3F9
S1133DB0CB01C01A524183098B4201D38B01C01A33
S1133DC0524143098B4201D34B01C01A52410309AA
S1133DD08B4201D30B01C01A5241C3088B4201D359
S1133DE0CB00C01A524183088B4201D38B00C01A06
S1133DF05241D9D243088B4201D34B00C01A5241DD
S1133E00411A00D20146634652415B10104601D369
S1133E104042002B00D54942704763465B1000D3F3
S1133E20404201B5002000F005F802BD0029F8D099
S1133E3016E770477047C046414208401C210123E1
S1133E401B04984201D3000C10391B0A984201D379
S1133E50000A08391B09984201D30009043902A257
S1133E60105C401A7047C0461B1C1D1D1E1E1E1EE2
S1133E701F1F1F1F1F1F1F1F70B500260C4D0D4C49
S1133E80641BA410A64209D1002600F06BF80A4D69
S1133E900A4C641BA410A64205D170BDB300EB58B4
S1133EA098470136EEE7B300EB5898470136F2E73E
S1133EB0703F0000703F0000703F0000743F00003E
S1133EC0002310B59A4200D110BDCC5CC454013318
S1133ED0F8E703008218934200D170471970013348
S1133EE0F9E7000000080042000C00420010004204
S1133EF0001400426E1400006A1400006A140000EA
S1133F00D0140000D01400008214000074140000C7
S1133F1088140000BE140000D8150000B815000075
S1133F20B815000044160000CA150000E61500008C
S1133F30BC150000F415000034160000302A0000FF
S1133F403E2A0000D82A0000782B0000DC2B000059
S1133F50040008007000800001000001000200005D
S1133F60030C1060F8B5C046F8BC08BC9E46704708
S1133F70DD000000F8B5C046F8BC08BC9E4670479A
S1073F80B500000084
S1133F8445020000850200009102000003020000C3
S1133F940000000005010906A101050719E029E74D
S1133FA4150025017501950881028101190029650F
S1133FB4150025657508950681000508190129056C
S1133FC41500250175019505910295039101C00021
S1133FD4880000205C000020000000006400002031
S1133FE49C00002009022200010100E032090400BF
S1133FF4000103000100092111010001223B000713
S113400405810308000200001201000200000008F8
S1134014EB03012400010102000100000000002060
S11340240003000000000000000000000000000085
S11340340000000000000000000000000403090464
S113404449616E2054656368000000004F53552194
S1134054204B6579626F6172640001010000000005
S1134064E0000000E0000000FFFFFFFF000000008C
S10F4074E0000000E0000000FFFFFFFF80
S903374580
