S01000006669726D776172652E73726563B7
S1130000A8240020C52A0000C12A0000C12A00003B
S113001000000000000000000000000000000000DC
S1130020000000000000000000000000C12A0000E1
S11300300000000000000000C12A0000C12A0000E6
S1130040C12A0000C12A0000C12A0000C12A000000
S1130050990B0000C12A0000C12A00001D230000E2
S1130060C12A0000C12A0000C12A0000C12A0000E0
S1130070C12A00000000000000000000C12A0000A6
S1130080C12A0000C12A0000C12A0000C12A0000C0
S1130090C12A00000000000000000000C12A000086
S11300A0C12A0000C12A0000C12A0000C12A0000A0
S11300B00000000010B5064C2378002B07D1054B37
S11300C0002B02D0044800E000BF0123237010BDC0
S11300D0DC00002000000000AC300000084B10B52C
S11300E0002B03D00749084800E000BF0748036815
S11300F0002B00D110BD064B002BFBD09847F9E72D
S113010000000000E0000020AC300000AC30000033
S11301100000000037B50023012201AC074D210087
S11301200E2023706270A370A84721000F20A847F7
S11301308022034BD2009A6137BDC046F10C000007
S1130140004400418022024BD2009A617047C046AD
S113015000440041704770478022024BD2005A612C
S11301607047C04600440041802270B5134CD20150
S1130170236A13405A425A411149D2B20D7895422A
S113018005D00A700820002B13D10E4B984780220B
S1130190236A120213405A425A410B49D2B20878D8
S11301A0904205D00A701520002B04D1054B9847C6
S11301B070BD064BEAE7054BF9E7C0460044004131
S11301C0F8000020A5030000F9000020410300000E
S11301D07047000082B0EFF310835A4253410193F9
S11301E072B6BFF35F8F0022024B1A70019802B0FF
S11301F07047C046D70000200020704710B5002487
S1130200074B08221C70074B21001C70064B074843
S11302101C70074B9847074B1C70074B984710BD41
S113022000010020FC000020FA0000200101002051
S11302306B300000FB000020A52C000010B5014B22
S1130240984710BDB12C000010B5034B034A044974
S1130250044C0548A04710BD99020000140000207A
S1130260FC000020010400000001002010B5024B36
S11302701878024B984710BD0C010020D1010000F2
S1130280002805D00122034B1A70BFF35F8F62B6BA
S11302907047C046D7000020094B00205A88110A35
S11302A002290BD1D2B2824208D1DA88012A05D1BF
S11302B0100004499A819960034919617047C04646
S11302C0880300200C0100206D02000073B5002497
S11302D00B4D2B78A34211D10A4E08220A490B4B2D
S11302E0300098470A4B21001C700A4B0A4C0093BB
S11302F0320008238120A04704002870200076BD26
S1130300FA000020100100200101002059300000F3
S1130310FB0000201D030000D91A0000002210B5C4
S1130320044B1A70044B1B78934201D0034B98473B
S113033010BDC046FA000020FB000020CD020000E2
S113034070B5134B0500984702230400114A911C11
S11303500878002804D120000F4B9847012070BD75
S1130360A84209D00133DBB20131082BF0D1F2E706
S1130370D1184978D1540133D9B20629F8D90023C8
S1130380D3710122054B1A70054B9847E3E7C04629
S1130390D50100000101002081020000FB000020C3
S11303A0CD02000070B5114B0400984702230500EC
S11303B00F4A995C00290ED0A14204D128000D4BAC
S11303C09847012070BD0133082BF2D12800094B56
S11303D098470020F6E7D4540124074B1C70074BC0
S11303E098472800034B98472000EBE7D50100000D
S11303F00101002081020000FB000020CD0200006A
S1130400F8B560262B4C1500227857B23240002FE5
S11304103CDA002A29D16378062B06D1264B98476B
S1130420020009325378212B01D000202BE063888D
S11304301B0AD9B2212B09D1A260417AE2880B1C94
S1130440914200D9131CA38101201CE093798B42B3
S1130450EBD1A560137AD1791B020B43E1881A1CF6
S11304608B4200D90A1CA281EEE7202ADDD16278F2
S1130470022A05D0032A07D0012AD6D1984702E0E0
S1130480A0600120A081F8BDA160FAE7202ACCD1A8
S113049062780A2A04D00B2A06D0092AC5D1EDE7CE
S11304A063881B0A0370CFE7E388002BBDD1638800
S11304B00B70C9E7880300201D06000010B5034B2C
S11304C058887F231840024B984710BD88030020AA
S11304D0511C0000F0B5164B1B78002B01D10020F5
S11304E0F0BD144B1B681B681A798242F7D9124C71
S11304F001262360DA789D7812022A4300259A188F
S11305009A4203D8002DEAD02360E8E75F78042FED
S11305100AD19F78874207D1DF788F4204D1002D1A
S113052000D023600120DBE71D785B193500E7E785
S1130530200100202401002028010020094B1B6811
S11305401B68DA78997812020A439B18027880189B
S1130550984201D3002004E04278042AFAD0052A04
S1130560F4D170472401002070B5104B0500984762
S1130570002801D1002070BD0D4B1C6820000D4BDC
S11305809847041E0AD04279037912021A43C178AB
S1130590094B807898470028F0D1EBE7074BAD0072
S11305A01B685B68EB581B689847E4E7D5040000B8
S11305B0280100203D050000BD1800002401002092
S11305C070B50021104D0400A847002802D1002571
S11305D0280070BD0D4BA2001B685B68D658F368F9
S11305E0984701002000A847051EF0D0084B1C685E
S11305F02000084B9847041E03D08078064B984788
S1130600F6E773689847E3E7D50400002401002067
S1130610280100203D05000069180000014B1868FE
S11306207047C0462801002010B5014B984710BD03
S1130630551D000070B50E4D00242B78002B0FD1F2
S113064000230C4C2B7023889B0701D50A4B984739
S11306500123238070BD2000084B98470134E4B285
S1130660074B1B681B681B79A342F4D8E8E7C04614
S11306702001002018010020992C0000C105000071
S11306802401002010B50B4B00241B78002B09D14A
S113069010BD5B68A200D3581B69002B00D098479B
S11306A00134E4B2044B1B681A681279A242F0D8F0
S11306B0EEE7C0462001002024010020F8B5002305
S11306C0A44CA38123616361237858B2002805DA1E
S11306D0E288002A02D100252800F8BD60211940D3
S11306E020D11F22002800DBCBE0E588002D19D0A3
S11306F0134000D08BE06378062B0CD0082B00D17C
S11307007EE0002B0ED1022D12D129009248934B8A
S113071098470125E0E763881D0A022D3DD029D8BA
S1130720012D34D01F2223781340012B00D179E10D
S11307301F2223781340022BCDD1894B00241B7830
S1130740002BC8D0874B1B681A681279A242C2D901
S11307505B68A200D558EB689847834B01002000E2
S113076098470028B7D0AB6898470028D1D1013406
S1130770E4B2E7E7032D27D00F2DD3D17B4B986844
S11307800028D5D0C17883780902194302E0774B59
S113079018680178714B984710E0744ADBB211680D
S11307A0497C9942C4D95268DB009858C17883784F
S11307B009021943694B9847A3685D70E388A289CD
S11307C09A42A6D9A381A4E7DBB2012B00D14EE162
S11307D0002B12D0022BA5D10C21654D00236548B6
S11307E05A00EE5C821801335680DAB29142F7D88F
S11307F049000231017089B2CCE704215E48C9E79F
S1130800012D95D129005648544B984764E7012B94
S113081022D163780A2B85D1012D00D002E1504BFF
S11308201B78002B00D1FDE04E4B26791F683B68F6
S11308301B79B34200D8F5E030004B4B9847051EB6
S113084000D16FE77B68B600F358DB6898474B4BE1
S1130850012118701800D7E7022B00D062E76378F3
S1130860002B00D05EE7022D00D061E7444B2079D5
S11308709847444B290018801800384B9847013D8D
S11308802AE7134000D08DE060780138082800D9A9
S113089048E702F01DFA100047FF200047FF090057
S11308A047FF47FF47FF2F00E388002B00D03FE7B7
S11308B0354B23612DE7E388002B00D038E76588AA
S11308C0012D00D034E70221234A13888B4313807F
S11308D02E4B984700E7E388002B00D028E7658873
S11308E0012D00D01EE71C4A023311880B431380EC
S11308F0274BEEE7E588002D00D019E7254B9847F4
S1130900002800D10EE7194FA2783B685B7C9A421D
S113091000DD07E7204B9847A378114A1370002B9A
S113092000D1F6E61D4A0F4E9B187A68DB00D318F7
S1130930336033681B681B79AB4200D8E9E60021B9
S11309402800174B9847002800D1EBE60135EDB29B
S1130950EFE7C0468803002018010020711C000046
S11309602001002024010020D504000050000020B4
S1130970CA000020A0000020BC0000201C010020B0
S1130980891900001A010020BD040000992C000000
S11309908D2C0000611C000035060000FFFFFF1FC6
S11309A069050000012B1AD163780B2B00D0B9E63E
S11309B0E388002B36D12F4B1B78002B32D02679BD
S11309C02D4B300065889847002800D1AAE6E9B28B
S11309D030002A4B9847002800D09AE6A2E6022B62
S11309E000D09FE66378012B10D0032B00D099E64A
S11309F0E388002B00D09BE66388002B00D097E6A9
S1130A0020791F4B984720791E4B09E0E388002B7F
S1130A1000D08DE66388002B00D089E620791A4B3C
S1130A209847D8E7134B1B78002B00D180E6174B6F
S1130A3025791E6833681B79AB4200D878E600211B
S1130A402800134FB847002800D171E67368AA0044
S1130A50D658F368984701002800B847002800D109
S1130A6066E6B3689847002800D052E660E609219C
S1130A70084DB3E620010020C1050000690500000F
S1130A801D1800009D1900009D1A0000240100207B
S1130A90D5040000C0000020094B196800290BD1BF
S1130AA0EFF31080074A002805D172B6BFF35F8FB9
S1130AB005490870012111701A6801321A607047E3
S1130AC02C01002030010020D7000020084B1A68B8
S1130AD0013A1A601B68002B09D1064B1B78002BC6
S1130AE005D00122044B1A70BFF35F8F62B67047C2
S1130AF02C01002030010020D7000020F7B501258B
S1130B00002701AC084E21000A206570A7702570EB
S1130B10B0478022054BD2009A6121000E20277035
S1130B206570B047F7BDC046F10C000000440041B9
S1130B3010B51723002A06D1064B8900CC58002C87
S1130B4003D1C8502300180010BD13008442FAD00A
S1130B501D23F8E7A00100201723002906D11F2830
S1130B6006D8163B8340034AD3600B001800704735
S1130B70C960FFDE001800401723002906D11F2892
S1130B8006D8163B8340034A93600B001800704755
S1130B908960FFDE00180040002370B501250B4C6E
S1130BA0237023780F2B00D970BD29009940084A7F
S1130BB01069084206D01161064A9B009B58002B1D
S1130BC000D09847237801332370EAE79F0100207F
S1130BD000180040A0010020014B5878C00970475C
S1130BE000180040022310B5044A11780B43137017
S1130BF0034B98470028FBD110BDC04600180040A5
S1130C00D90B0000402307B5104A052091690B4316
S1130C109361002301A90B700D4B98470D4B0520E0
S1130C20984701230C4A11780B4313700B4B9847D8
S1130C300028FBD102000A4B1A5004304028FBD193
S1130C401022084B1A60084B984707BD0004004067
S1130C500D1100008510000000180040D90B0000A1
S1130C60A001002000E100E0E50B000000230122C8
S1130C70036043608372023302724272C37270472C
S1130C80F7B50C000026237901A94E70CE700B70C5
S1130C90237A05008B702078134B984733001F2D5F
S1130CA000D8124B0721A27A29408900E67A002A4B
S1130CB001D0082216430F278E408F403100EA08E6
S1130CC092009A189069B84301439161617A0122B4
S1130CD0002904D0AA4059690A435A61F7BDAA40C1
S1130CE0596991435961F9E7AD11000000180040BA
S1130CF007B5802201AB1A700A785A704A789A7044
S1130D008A781900DA70014B984707BDAD110000CD
S1130D1010230249CA681A42FCD0704700080040F8
S1130D200222F8B50026094D094C2B68094F1343DC
S1130D302B60A284B847AB68E3626B68A362A684A5
S1130D40B8472B6830009BB2A384F8BD340100205F
S1130D5000080040110D000070B5847802784578D1
S1130D60012040260540204080240849AD010B6A3B
S1130D70C001B3432B43A34303430320024004486D
S1130D801202034013430B6270BDC04600080040CA
S1130D90FFFCFFFF10B5027A438992069B059B0D69
S1130DA0120C1A43174B5A60C179827984880A431A
S1130DB0418821430A4341780478C9010A431A60EF
S1130DC0042C0DD1027B018A92060A43C1890E4884
S1130DD0090401400A439A601A6814431C6010BD58
S1130DE0202CFCD1027B018A92060A43C189064861
S1130DF0090401400A439A601968044A0A431A60C4
S1130E00EDE7C046340100200000FF032404000085
S1130E1010B5082806D801F051FF1405050C0E1A68
S1130E2007202300172010BD0223104A116A0B4328
S1130E3013620020F7E702230C4A91690B43936184
S1130E40F7E70223094A118A0B431382F1E70223CD
S1130E50064A918A0B439382EBE7054B9847E2E7F6
S1130E600223044A11780B431370E2E700080040A0
S1130E70210D000044080040C2231E2270B52F4DEE
S1130E80DB002F49AB604B68002693431A00042310
S1130E9013434B6001238AB005AC2370F0B22100E8
S1130EA0284B01369847252EF8D100232022638051
S1130EB0A371E3716370244B22701B689B0E3F2B5C
S1130EC000D1203B2372072323730333E3811F4B99
S1130ED020006381FF3BA3801D4B23821D4B984759
S1130EE00023012201A8437003701B4B82709847B2
S1130EF01A4B062098471A4B98471A4B98471023C9
S1130F00EA681A42FCD080230024AA8C02A9134365
S1130F10AB84154B07221C725C729C72DC72012339
S1130F2020004B600B72114B4C704C720A70984746
S1130F3020000F4B98470AB070BDC046000800401F
S1130F40004000410D11000024608000FF010000FA
S1130F5080BBFFFF950D0000590D0000110E00002D
S1130F60810F0000210D000000040040A10F0000CB
S1130F7045100000014B5878C0097047000C004030
S1130F800823054A91690B4393610123034A1370B3
S1130F9011781942FCD1704700040040000C004055
S1130FA0F8B50C784B782402060005000443002BA6
S1130FB002D08023DB021C434B7A002B02D0802317
S1130FC01B031C434B68012B12D95D1E1D400222DA
S1130FD0002D06D01D02802335439B0207E0013516
S1130FE052009A42FBD380232D0235435B031C43FA
S1130FF00B7A002B02D080239B031C430C4FB84771
S11310000028FBD10B4B98470B4B1E70B8470028A8
S1131010FCD10A4B9D601D00B8470028FCD18022FA
S11310206B68520213401C436C60054B9847F8BD33
S1131030750F0000990A0000080C0040000C0040E5
S1131040CD0A000070B50500094CA0470028FBD16B
S1131050084B9847084B1D70A0470028FCD18023FB
S1131060064A5B0251680B435360054B984770BDB9
S1131070750F0000990A0000040C0040000C0040A9
S1131080CD0A000010B50400064B9847064B074AEA
S11310901C7080235188DB010B435380044B984719
S11310A010BDC046990A0000020C0040000C00402C
S11310B0CD0A000010B504000E4B98470E4B0F4AA2
S11310C01C700F4B0F4C58885988000511405980EB
S11310D05988000F2140598011008022D2015C8878
S11310E01442FCD15A8800020A4002435A80064B3B
S11310F0984710BD990A0000020C0040FFF0FFFF62
S1131100000C0040FFBFFFFFCD0A000010B50C78B3
S1131110034B240204439847024BA4B25C8010BDE5
S1131120B5100000000C0040D37830B5002B35D149
S11311301478802C03D0802324065B0223430225E9
S11311405478AC4306D19478002C24D18024A40292
S1131150234341605478013C012C01D8124C2340B4
S1131160A0248DB2E4052C431C438462D0240D0CCE
S113117024062C431C438462D478002C0AD15B03DC
S113118003D59378012B0CD181615378013B012B5A
S113119000D8816030BDC024E402D9E74160002357
S11311A0DEE74161F1E7C046FFFFFBFF10B5030036
S11311B00A004409C1090020814202D10449E00126
S11311C040181F210B401E399940024B984710BD0F
S11311D000440041291100007047000010B5054B80
S11311E09847054B9847054B9847054B9847054B3F
S11311F0984710BD790E0000FD0A0000D9110000C7
S1131200050C0000D911000082B0EFF310835A429C
S11312105341019372B6BFF35F8F0022024B1A70E1
S1131220019802B07047C046D70000207F220240D8
S1131230131E09D00F2303405B00C00918181423A0
S113124002385843014B1B18180070475401002002
S1131250F0B58D7985B06AB20E00544B2800002A8F
S113126048DA0F2798472F400197038A8168029331
S11312707688C3680400F618C660877C8E4225D041
S11312808D1B4B4BADB29D4206D918000299494BB8
S11312909847474B5D1AADB20021BB0707D5464BB3
S11312A00299280098478BB259425941C9B2022287
S11312B0A37C4900934319432B006268A1749219DB
S11312C001993E483E4CA04705B0F0BD02233800CA
S11312D0184005D062689F43A77492190023EFE772
S11312E001239F432368A774002BEDD02A0031000B
S11312F09847E9E798470F232B400293038A040099
S11313000193837C37885B0711D5C2684368944690
S1131310634403930199284B80689847029B0A0011
S1131320013B28499B0159180398274B9847E368C8
S1131330FA18A368E2609A4200D9E360B288BA421C
S113134027D1E668B34224D09D1B194FADB2019951
S1131350BD4216D9174B380098477B1A019A9BB2A5
S113136016481A4F9A4211D90423A27C1343A3743A
S1131370029B5A1E134B9201D218019B0299B84743
S1131380A2E70D4B280098476B1AE7E762689219A9
S1131390F4E70122A37C9343A3742368002B00D1B8
S11313A092E72A00E1680020A2E7C0462D1200005F
S11313B0FF1F0000C52F0000F12D000020020020B7
S11313C045220000E0010020593000009122000075
S11313D0052210B5054B064C1A7020008021054BE0
S11313E0984700212000044B984710BD520100206B
S11313F020020020CB210000E521000073B5050088
S11314001D4B9847802300242A6801AE9372300054
S11314101A4B984731002800194B747098472800DC
S11314201849194B9847194E21002800184B0222DD
S1131430B047220021002800164BB047164B21006C
S113144028000122B047154E210028000222B0478F
S1131450220021002800B047210028000122B047C3
S113146029680F4A0B891A408023DB0013430B8140
S11314700C4B1C7073BDC04635060000E11F000014
S1131480F11F0000A0030020D9220000791E0000F3
S113149015160000C9190000E5140000C91E00005B
S11314A0FFF3FFFF52010020032210B5074B084C45
S11314B01A7008492000084B98470023074A19006E
S11314C092682000064CA04710BDC046520100207F
S11314D020020020A0030020D9220000880300205D
S11314E04522000010B589790C4B4AB2002A0BDA68
S11314F01B78012B02D10A4B984710BD042BFCD159
S11315000848094B9847F8E71A78022A02D10232B0
S11315101A70F2E7032AF0D1F2E7C0465201002024
S1131520A914000020020020CB21000070B51D4D3D
S11315301D4E2B88B489E41AA4B2002C1BD11B4A7B
S113154011885B189BB21380F2889A4203D0184B1F
S11315501B78002B07D00422164B17491A70174822
S1131560174B984770BD7369002B16D09847002815
S113157013D02C80B489072C0FD9002208240C4BDB
S11315801A702B88B2680021D2180C4823000D4E23
S1131590B0472B88E4182C80E4E70122044B1A702E
S11315A0EFE7C0464E0100208803002050010020D0
S11315B04C01002052010020A00300202002002042
S11315C0D92200004522000010B5024B9847024B77
S11315D0984710BD850600006D2C00000122034BC6
S11315E01A70BFF35F8F62B67047C046D700002001
S11315F0074B9A8C920605D4D021DA680A40D02A87
S1131600FBD170471022D9681142FCD0F9E7C046DB
S113161000080040F8B5274E0C003378002B06D0A4
S1131620254B1B69002B00D0984700233370278873
S1131630082F02D0214B9847F8BD214C1E4D23782A
S11316402B7063786B70E278A37812029B186B801E
S11316506279237912029B18AB80E279A379120292
S11316609B18EB80174B98470028E3D02B787F2BEF
S11316700DD90021144B22001980144B14481980F1
S11316800223144C33703B00A047134BD3E7EB8881
S1131690002B01D1114BCEE700210B4B2200198006
S11316A00A4B0C4C19800123094833703B00A047B6
S11316B0C2E7C0465201002088030020D113000075
S11316C0A0030020BD060000500100204E010020B0
S11316D020020020912200002D150000A914000012
S11316E00023F0B585B003AC237003336370013B72
S11316F0A370013BE370164B05001B7801938342F2
S113170024D000280ED0265C124FBB5DFF2B00D1E5
S1131710FEE7114B9847BB5D0133BB55002801D050
S11317200E4B9847019B002B0ED0E45C094E335DB1
S1131730002B00D1FEE7084B9847335D013B33553E
S1131740002801D0054B9847014B1D7005B0F0BD32
S11317507C0100209A01002009120000DD15000020
S113176070B5084C084D06212000A847042120002C
S1131770A84702212000054B98470220044B9847B4
S113178070BDC046200200205D1E00003D1E00000A
S1131790E116000070B50C4B98470C4C0C4B022121
S11317A0200098470B4D04212000A8470A4A0B4B00
S11317B006212000984706212000A8470320084B53
S11317C09847084B984770BDF1150000200200208F
S11317D05D1E00003D1E000061170000191E000080
S11317E0E1160000612C000010B5074C0421200014
S11317F0064B984702212000054B98470120054BD2
S11318009847054B984710BD200200205D1E00003C
S11318103D1E0000E1160000552C000070B50400C8
S113182001000A4B0A4898470A4B200098470300D6
S1131830827C0120024207D01D6882439A74002DE5
S113184002D02200D968A84770BDC046812100009B
S1131850200200202D120000024B1B68188A80040D
S1131860400D704720020020F7B50400002701ADA9
S113187028000C4B984720000B4B98470B4E29002F
S113188030000B4BEF702C7098470F213A00214029
S11318903000084B98473A0030002100064B984727
S11318A0F7BDC046E11F00001D1800002002002003
S11318B0F11F0000A11E0000551F0000F7B506002F
S11318C001AC294B20000F00150098472670002317
S11318D0082D10D90123102D0DD90223202D0AD94A
S11318E00323402D07D90423802D04D980235B00D2
S11318F09D4224D8FB3B637030001C4B9847032364
S113190005821F40012F28D1013B194DE3702100AE
S11319102800184B9847041E1BD10F21164B0200B8
S113192031402800154FB84722003100144C2800DC
S1131930A047012231002800A04701200AE08023AB
S11319409B009D4202D8FB3BFF3BD4E70D4B9D42DD
S113195001D90020FEBD0723CDE7022FD5D0032FE8
S1131960F7D10423D1E7C046E11F00002D12000087
S113197020020020F11F000051120000791E000017
S1131980C91E0000FF03000010B50100014B02480E
S1131990984710BDAD210000200200200F2310B590
S11319A0034004000020012B07D821000348044B06
S11319B098472000034B9847012010BD20020020C7
S11319C0CB2100001D180000F8B5294F3B78012BEE
S11319D041D1284A284D0E881488AB89A219934214
S11319E001DA1E1BB6B2AB68320018192349244B26
S11319F0A4199847A3B21F4C2380082E05D1214E69
S1131A00E9883288D21891420FDCAB816B69002BD4
S1131A1008D09847002805D1052300203B701A4BB5
S1131A209847F8BD194B9847FBE7AA899A420BD10E
S1131A306B69002BF0D098470028EDD033882288BA
S1131A409B1833800023238008230C4A0021104C68
S1131A501048A047E5E7022B01D10F4BE3E7064B03
S1131A601B69002B00D0984700233B70D9E7C04680
S1131A70520100204E01002088030020A003002012
S1131A8059300000500100209D190000A9140000E5
S1131A9091220000200200202D1500000F2370B5B4
S1131AA0034006000024012B0ED8084B984705007C
S1131AB0074B310007489847AB7C0134234203D0DD
S1131AC0A343AB742B689847200070BD2D1200000F
S1131AD0E521000020020020F0B585B003921E002D
S1131AE002000F231A4002900D000192012A03D92B
S1131AF00027380005B0F0BD02984A4B9847071EEE
S1131B00F6D1494B029898470400484B9847012363
S1131B10A27C1A4204D00028EAD0454B9847E8E753
S1131B201343A374002801D0414B9847039B02221E
S1131B3063600023E3600A9BA660236001231D40C9
S1131B406900A57C95430D4304218D436946097AB8
S1131B50A57449B200293BDAEDB2002E26D0354BEC
S1131B60B6B29E4206D91800218A334B9847314BAE
S1131B705E1AB6B2AB0707D5218A30002F4B9847BF
S1131B8089B248424841C7B201200223384041008B
S1131B90A07C98430843A0743300039A0199284811
S1131BA0284CA04743425841C7B2A2E7154202D08D
S1131BB09543A574F0E79D43A5740A9B002B01D1BE
S1131BC0012796E70021029A08000A9B9847F7E745
S1131BD0002E22D0278A174DB6B23900AE4216D94C
S1131BE0154B280098476B1A9BB21548164D039A5B
S1131BF0BB4209D20423A27C1343A374019B5A1E43
S1131C00124B9201D2183B000199A847CAE7300051
S1131C100A4B9847761AB3B2E7E7A27C9A43A274B8
S1131C20CBE7C046891900002D12000009120000FC
S1131C30DD150000FF1F0000C52F0000F12D00007E
S1131C40200200204522000091220000E001002033
S1131C508022024B10431B689872704720020020B8
S1131C60024B1B68987A4006400E70472002002001
S1131C70014B98609981704788030020012010B5BA
S1131C80034B1A68138903431381024B984710BD11
S1131C9020020020E1160000F8B501270320164BAE
S1131CA09847164C164E2268042113892000BB4322
S1131CB01381144AB047144A00212000B047390068
S1131CC0124A2000B047124A02212000B047114DA9
S1131CD004212000A84700212000A8473900200043
S1131CE0A84702212000A8470B4A06212000B0473C
S1131CF006212000A847F8BDE116000020020020BC
S1131D00191E0000E9170000C9150000FD130000AA
S1131D10951700003D1E000061170000084B10B528
S1131D2000210E209847074B1B6A5B0406D5064B1F
S1131D30984700210E20054B984710BD044BF7E748
S1131D40790B000000440041991C0000590B00006D
S1131D507D1C0000F0B5204B85B098471F4B070051
S1131D606846984700246B461D4D6A461D49280065
S1131D709C701D4B984728001C4B98471C4B01AD89
S1131D80984701201B4B984728001B4B9847032377
S1131D900E26EB72023BAB722100184B30006C60D4
S1131DA02C720196984729003000154B9847154D21
S1131DB022003100144B28009847144B21003000B6
S1131DC09847134B1B6A5B0400D5A847002F01D02A
S1131DD0104B984705B0F0BD09120000CD28000053
S1131DE02002002000500041DD28000009230000EB
S1131DF0F1150000E11600006D0C0000790B0000E5
S1131E00810C00001D1D0000310B0000590B000067
S1131E1000440041DD1500000B002E339B0010B57B
S1131E201A50AA22044C52004900835A095B0B43FE
S1131E308352002010BDC0467A300000064B490092
S1131E40CB5AAB21026849009383425A1A43425247
S1131E5002680020138370477A300000054B490064
S1131E60CA5AAB214900435A9343435203680020A2
S1131E709A8270477A30000010B58C00A41834346C
S1131E80A40004194018593004496360FF300378F2
S1131E908A5C13430370002010BDC04688300000E4
S1131EA08B009B18343310B59B000400C31800202A
S1131EB0641858605934034BFF349A5C2378934375
S1131EC0237010BD883000000F2370B50B40C41878
S1131ED061341F4EFF342578B65C35432570002AE3
S1131EE00FD10268002B03D1FF320333937221E038
S1131EF05B01D21849B2FF3202230029F6DB012329
S1131F00F4E7012A0ED10268002B02D1FF320C3310
S1131F10ECE75B01D21849B2FF3208230029E5DB64
S1131F200423E3E7022A07D102685B01D3181022D5
S1131F30FF339A72002070BD032AFBD102685B0153
S1131F40D21849B2FF3240230029CFDB2023CDE74A
S1131F50883000000F2370B50B40C4181F4D613446
S1131F60FF34AE5C2578B5432570002A0FD1026892
S1131F70002B03D1FF320333537221E05B01D218EB
S1131F8049B2FF3202230029F6DB0123F4E7012AD8
S1131F900ED10268002B02D1FF320C33ECE75B0157
S1131FA0D21849B2FF3208230029E5DB0423E3E712
S1131FB0022A07D102685B01D3181022FF335A7238
S1131FC0002070BD032AFBD102685B01D21849B21C
S1131FD0FF3240230029CFDB2023CDE788300000E7
S1131FE000230370437083700133C3707047000093
S1131FF00F23F0B504000D78C8782B406DB2042887
S113200060D8226800F05AFE030849879D0000202A
S113201008335B01D054F0BD5E019219FF3255784C
S11320201C206D07F7D1702557782F42F3D10B3858
S11320305070226808335B01D2182F305071226827
S1132040D31880221A718A784B4B002A1BD0802027
S11320509A1954680006044354605469204350613B
S113206007254A789B195868444C2A401207204097
S11320701043586049785A692940090722400A43A5
S11320805A610020C7E7981942685200520842601A
S11320904269520052084261E2E758011218FF32C5
S11320A0002D27DA702657781C203742B3D1567892
S11320B00430304350701800226808304001121870
S11320C0802010710724ED0F5B002B4A5B194878C0
S11320D01B01D3185A682040284C000722400243B1
S11320E05A608878002842D08022596812060A4330
S11320F05A60C6E756781C20760700D08BE75678DE
S11321001A38304350701800226808304001121801
S113211040205071D6E758011218FF32002D08DA1A
S1132120702657781C20374200D074E75678143054
S1132130BFE756781C20760700D06CE7567819382C
S1132140DFE758011218FF32002D08DA702657789D
S11321501C20374200D05EE756782430A9E7567831
S11321601C20760700D056E756781838C9E75A6815
S1132170520052085A604EE7A8030020FFFFFF8F69
S11321800F230B40026808335B0149B2D2180029BF
S113219006DA802111710268D3180222DA717047BD
S11321A0402151710268D3180122F7E70F230B4035
S11321B0006808335B01C31849B29879002902DA30
S11321C08006C00F7047C006FBE70F230B40006872
S11321D008335B0149B2C3182022002900DB102216
S11321E05A7170470F2330B50B4002685C01121915
S11321F0FF3249B2D579002912DA20210D420ED0DE
S11322005171026849181219FF32147A0C4206D02F
S11322101172026808335B01D31802221A7130BDAF
S113222010210D42FBD05171026849181219FF3276
S1132230147A0C42F3D01172026808335B01D3188C
S11322400122EBE770B50C00056808346401655D94
S11322501C266D066D0F14D04D010B499B044919C2
S11322600D000A614A69094900260A406A616A69DF
S1132270990C930B9B030B436B6103681C1980231C
S11322806371300070BDC046A8030020FF3F00F01A
S113229070B50C00056808346401655D1C266D0783
S11322A013D00B4D49014A519B0469184A681D0912
S11322B0084B002613402B434B604B689B0B9B033E
S11322C04B6003681C1940232371300070BDC04665
S11322D0A8030020FF3F00F0094B19605A68094920
S11322E01140802292020A435A605A68920B920368
S11322F05A60402203680020FF335A717047C04679
S1132300A8030020FF3F00F00223026811780B436A
S1132310137002689378022BFCD07047F0B5D74E47
S113232085B037683D682B78DB0900D122E12B8C1E
S1132330002B00D12DE2288CD14B80B298470300AA
S11323400400032008335B01ED18ED79EAB2019231
S1132350024231D00121CB4A94460A006546A2408C
S11323602D6895432A0065462A603A68D218D071D0
S11323703A19AE3212780A421ED0C34A6001147070
S11323803968595CC14B8907890F1B18012900D092
S1132390B4E059688904890C518059680901890C91
S11323A091805A68920B92035A60A31C1B01FB187C
S11323B05B68B549380098470423019A1A4238D01B
S11323C02200AE4B08321868530101689C465B5CDE
S11323D09B065B0F0293022B00D0A4E063465B5C78
S11323E09B079B0F012B00D09DE0A84F65017D1931
S11323F02F0003950837BF78FD0700D493E0A3406E
S1132400A04A1168994300231160039A937204222D
S113241003686344DA710319AE331B78029A1342DA
S113242007D0102398494B702301C3180C709B6A82
S113243098470822019B13421DD00123A3409149D0
S11324400868984308603068A31801685B01CB18DA
S1132450DA710319AE331B789B070CD58B4B6201E1
S11324609B181F22DB89884913404B702301C31832
S11324700C709B6A98471022019B13421FD00123C2
S1132480A3408049086898432300086030680833F3
S113249001685B01CB18DA710319AE331B785B0753
S11324A00DD5794A794B61015B1814705B68002182
S11324B01B019B0C53802301C318DB6A984720221D
S11324C0019B134200D1F9E10123A3406D4908683F
S11324D09843230008603068083301685B01CB1817
S11324E0DA710319AE331B781B0700D4E6E16649A1
S11324F00C7024010419236B9847DFE15968644D7B
S11325000901890C518088B259688904890C918029
S1132510596829405960002800D046E75B689B044D
S11325209B0C538041E75201535C584D9B065B0F53
S1132530AC466701032B11D1535C9B079B0F012B06
S11325400CD13900002361448B72042103689B1869
S1132550D97103689A18102353716AE73A0000236B
S11325606244937222000368083252019B180422C9
S1132570DA715EE72C8CA2B20192002A2CD1AB8BCB
S113258055329BB20293AB23FF325B00FB5ABD5A18
S113259080271D40029B019C1D407F003D4B620033
S11325A0D35A029A134202D03268126893832B42A0
S11325B00ED03949062C04D1344B1B891B093B40EE
S11325C00B60230032682E339B009B581000984701
S11325D00134072CE2D171E13E005936FF36019AED
S11325E001211A41DCB20A4200D1CCE01A000832BF
S11325F051016918C81D0390C879317A0292C0B29A
S1132600327801401140602210421AD05A01AD18AC
S11326104022FF35287A10420DD02A72C03A144362
S11326201E4A94716022114200D147E11B01FB183C
S1132630E0331B6852E02022287A1042F2D02A723A
S1132640EEE7102210422BD01021039A11701021B2
S1132650FA186132FF3212780A4200D12EE10B4A95
S11326605901521852681B01FB1892040B49DC33C0
S1132670920C1B680A8038003EE7C04680010020A7
S1132680D12F00009001002094010020A803002015
S1132690FF3F00F07A300000840100208801002010
S11326A0032210422ED002205A01AD18FF352E7A93
S11326B0064215D02872802581486D422C438471CE
S11326C0804CA218103252689204920C42808A07FD
S11326D000D1F3E00D331B01FB185B687849CAE7AE
S11326E00126287A3042F2D075482E728471754CD6
S11326F0A41862689204920C028062681201920C1F
S11327008280E4E70C2210423DD008205E01AD191E
S1132710FF352A7A02421ED028726A48801902269E
S1132720857E354202D0857EB54385768020404241
S113273004436348029A8471386852018218D2793A
S1132740920700D5BAE00C22114200D1B6E01B0179
S1132750FB18D8336DE704202A7A0242F3D028729A
S1132760584880190226857A354202D0857AB543C5
S113277085725348029A8471386852018218D2795A
S1132780D207E0D59AE001330136082B00D026E7C2
S113279094E00423AC8BA4B21C4226D0AB834A4BF6
S11327A01B689C4601231D002A0061469A40114281
S11327B010D019003A6808314901885C8006400F3E
S11327C0032807D1885C8007800F012802D15218A2
S11327D0102111710133082BE6D13B00A5331B787E
S11327E0DB0702D57B683800984708231C420CD0CD
S11327F00021354A30681160026893830300A533D1
S11328001B789B0701D58368984740231C4209D055
S11328103068026893830300A5331B78DB0601D577
S11328204369984720231C4209D030680268938387
S11328300300A5331B781B0701D5036998471023B0
S11328401C4209D03068026893830300A5331B78C7
S11328505B0701D5C368984780231C420CD0002134
S1132860194A30681160026893830300A5331B780A
S11328709B0601D58369984780235B001C420CD0DA
S11328800021114A30681160026893830300A53364
S11328901B785B0601D5C369984780239B001C42C3
S11328A00CD00021084A3068116002689383030049
S11328B0A5331B787F2B01D9036A984705B0F0BD77
S11328C088010020A8030020900100200022012399
S11328D0027043708270C370704700000023F7B524
S11328E004001700694A0D001360694A21601060F2
S11328F02022684901AEC8690243CA61012273708B
S1132900F3700633337031001820634BB27098476C
S113291006233100337019205F4B98476A46BB7811
S11329206946137006205D4B98475D4B0620984717
S113293001222B7813432B70AB78DB07FCD40321E3
S1132940584BDA788A43110002220A430C21DA70C8
S1132950DA788A43110008220A431F21DA70524AA6
S113296013685B0B0B408B4200D10523288D4F4E1F
S11329700B409B01304003432B8513689B0C0B4099
S11329801F2B00D1023B1F20298D034081430B43A1
S113299007212B851368DB0D0B408B4200D10323E9
S11329A02A8D0B4042491B030A407F2113432B8588
S11329B02B783A780B40D20113432B707A782B781A
S11329C07E390A40033192008B433A4813432B70FB
S11329D06862FB78012B4FD12268083113898B433D
S11329E01381802200215200334B9847220000219A
S11329F0231D243202C39342FCD121000022A431BE
S1132A001A605A609A60DA6010338B42F8D11A70F7
S1132A1023002100A5331A7000220133AE311A704D
S1132A201A7201338B42FAD1230022000021B833F9
S1132A30D43202C39342FCD1210000225531FF312C
S1132A401A605A609A60DA6010339942F8D1AA2366
S1132A505B00E2520233E252230000225933613414
S1132A60FF33FF341A701A7201339C42FAD1802268
S1132A70124B00201A60FEBD002BB2D10C25226837
S1132A801389AB4319431181ABE7C0469001002081
S1132A908001002000040040AD1100000D11000071
S1132AA08510000000500041246080003FF8FFFFC3
S1132AB0FF8FFFFFA80300206B30000000E100E05F
S1132AC0FEE700002148224970B5884204D0002363
S1132AD0204CCA18A24232D300211F4B1F4A9342F2
S1132AE031D3FF211E4B1F4A8B43936002220C25D6
S1132AF0082430261C4B1D485A62C378FC398B438A
S1132B001343C370C378AB432343C370184B987B00
S1132B10B0430600202030439873987BA8430443B5
S1132B209C73987B884302439A738023114A5168AB
S1132B300B435360104B9847104B9847FEE7C5581A
S1132B4004331560C5E702C3C9E7C046AC300000D2
S1132B5000000020DC000020DC000020A80400208D
S1132B600000000000ED00E0FC7000410050004156
S1132B70004800410040004111300000812B00005A
S1132B80F8B50127294D2F70BFF35F8F62B6002679
S1132B90274C284B26706670A670E67027719847FC
S1132BA0254B9847254B9847254B984772B6BFF35A
S1132BB05F8F00222E70A05CD3B201320028FAD0BD
S1132BC0002B04D12F70BFF35F8F62B6EEE772B6AD
S1132BD0BFF35F8F0F211B4A2E709269013B120ACB
S1132BE0DBB20A40022A07D8174842689446C0223A
S1132BF0614692000A434260022B09D9032B0FD08D
S1132C002F70BFF35F8F62B6BFF34F8F30BFCDE736
S1132C1004210E4802698A4302610D4A5370EFE7AA
S1132C2004230A4A106903431361E9E7D70000202B
S1132C309A010020DD11000015010000450100008B
S1132C4029060000002000410040004100ED00E0A2
S1132C500004004010B5014B984710BD4501000029
S1132C6010B5014B984710BD5901000010B5044B35
S1132C701B78002B03D0034B9847034B984710BD98
S1132C80D8000020591800006901000010B5014B5C
S1132C90984710BD5501000010B5014B984710BD71
S1132CA0570100000120014B18707047D800002024
S1132CB00022014B1A707047D800002002B47146FC
S1132CC049084900095C49008E4402BC7047C0466B
S1132CD003B47146490840004900095E49008E4426
S1132CE003BC7047002243088B4274D303098B4210
S1132CF05FD3030A8B4244D3030B8B4228D3030CC8
S1132D008B420DD3FF22090212BA030C8B4202D369
S1132D101212090265D0030B8B4219D300E0090A91
S1132D20C30B8B4201D3CB03C01A5241830B8B429A
S1132D3001D38B03C01A5241430B8B4201D34B0383
S1132D40C01A5241030B8B4201D30B03C01A5241E8
S1132D50C30A8B4201D3CB02C01A5241830A8B426D
S1132D6001D38B02C01A5241430A8B4201D34B0256
S1132D70C01A5241030A8B4201D30B02C01A5241BA
S1132D80CDD2C3098B4201D3CB01C01A524183096E
S1132D908B4201D38B01C01A524143098B4201D3A8
S1132DA04B01C01A524103098B4201D30B01C01AD3
S1132DB05241C3088B4201D3CB00C01A524183084D
S1132DC08B4201D38B00C01A524143088B4201D37A
S1132DD04B00C01A5241411A00D2014652411046DA
S1132DE07047FFE701B5002000F0F0F802BDC046CF
S1132DF00029F7D076E7704703460B437FD40022BF
S1132E0043088B4274D303098B425FD3030A8B427A
S1132E1044D3030B8B4228D3030C8B420DD3FF22E4
S1132E20090212BA030C8B4202D31212090265D0B2
S1132E30030B8B4219D300E0090AC30B8B4201D365
S1132E40CB03C01A5241830B8B4201D38B03C01AAC
S1132E505241430B8B4201D34B03C01A5241030B23
S1132E608B4201D30B03C01A5241C30A8B4201D3D4
S1132E70CB02C01A5241830A8B4201D38B02C01A7F
S1132E805241430A8B4201D34B02C01A5241030AF6
S1132E908B4201D30B02C01A5241CDD2C3098B42DB
S1132EA001D3CB01C01A524183098B4201D38B0158
S1132EB0C01A524143098B4201D34B01C01A5241FB
S1132EC003098B4201D30B01C01A5241C3088B4240
S1132ED001D3CB00C01A524183088B4201D38B002B
S1132EE0C01A524143088B4201D34B00C01A5241CD
S1132EF0411A00D201465241104670475DE0CA0FA4
S1132F0000D04942031000D34042534000229C4663
S1132F1003098B422DD3030A8B4212D3FC2289016D
S1132F2012BA030A8B420CD3890192118B4208D343
S1132F30890192118B4204D389013AD0921100E0A5
S1132F408909C3098B4201D3CB01C01A52418309B9
S1132F508B4201D38B01C01A524143098B4201D3E6
S1132F604B01C01A524103098B4201D30B01C01A11
S1132F705241C3088B4201D3CB00C01A524183088B
S1132F808B4201D38B00C01A5241D9D243088B42E1
S1132F9001D34B00C01A5241411A00D20146634684
S1132FA052415B10104601D34042002B00D54942E8
S1132FB0704763465B1000D3404201B5002000F027
S1132FC005F802BD0029F8D016E770477047C046DF
S1132FD0414208401C2101231B04984201D3000CE8
S1132FE010391B0A984201D3000A08391B09984278
S1132FF001D30009043902A2105C401A7047C0468C
S11330001B1C1D1D1E1E1E1E1F1F1F1F1F1F1F1FDB
S113301070B500260C4D0D4C641BA410A64209D1BA
S1133020002600F033F80A4D0A4C641BA410A64293
S113303005D170BDB300EB5898470136EEE7B300F5
S1133040EB5898470136F2E79830000098300000BA
S1133050983000009C300000002310B59A4200D143
S113306010BDCC5CC4540133F8E7030082189342CA
S113307000D1704719700133F9E7040008007000AB
S11330808000010000010002030C1060F8B5C04686
S1133090F8BC08BC9E467047DD000000F8B5C04689
S10F30A0F8BC08BC9E467047B500000058
S11330ACFD0100003D02000049020000F90100008E
S11330BC0000000005010906A101050719E029E734
S11330CC15002501750195088102810119002965F6
S11330DC1500256575089506810005081901290553
S11330EC1500250175019505910295039101C00008
S11330FC880000205C000020000000006400002018
S113310C9C00002009022200010100E032090400A5
S113311C000103000100092111010001223B0007F9
S113312C05810308000200001201000200000008DF
S113313CEB03012400010102000100000000002047
S113314C000300000000000000000000000000006C
S113315C000000000000000000000000040309044B
S113316C41544D454C2041534600484944204B653D
S10F317C79626F617264000101000000C0
S9032AC50D
